{
  "contractName": "JudoSystem",
  "abi": [
    {
      "inputs": [],
      "stateMutability": "nonpayable",
      "type": "constructor"
    },
    {
      "anonymous": false,
      "inputs": [
        {
          "indexed": true,
          "internalType": "uint256",
          "name": "id",
          "type": "uint256"
        },
        {
          "indexed": false,
          "internalType": "enum JudoSystem.BeltLevel",
          "name": "oldBeltLevel",
          "type": "uint8"
        },
        {
          "indexed": false,
          "internalType": "enum JudoSystem.BeltLevel",
          "name": "newBeltLevel",
          "type": "uint8"
        },
        {
          "indexed": false,
          "internalType": "uint256",
          "name": "timestamp",
          "type": "uint256"
        }
      ],
      "name": "BeltLevelUpdated",
      "type": "event"
    },
    {
      "anonymous": false,
      "inputs": [
        {
          "indexed": true,
          "internalType": "uint256",
          "name": "id",
          "type": "uint256"
        },
        {
          "indexed": false,
          "internalType": "string",
          "name": "name",
          "type": "string"
        },
        {
          "indexed": false,
          "internalType": "uint256",
          "name": "date",
          "type": "uint256"
        }
      ],
      "name": "CompetitionCreated",
      "type": "event"
    },
    {
      "anonymous": false,
      "inputs": [
        {
          "indexed": true,
          "internalType": "uint256",
          "name": "competitionId",
          "type": "uint256"
        },
        {
          "indexed": false,
          "internalType": "address",
          "name": "firstPlace",
          "type": "address"
        },
        {
          "indexed": false,
          "internalType": "address",
          "name": "secondPlace",
          "type": "address"
        },
        {
          "indexed": false,
          "internalType": "address",
          "name": "thirdPlace",
          "type": "address"
        },
        {
          "indexed": false,
          "internalType": "address",
          "name": "fourthPlace",
          "type": "address"
        }
      ],
      "name": "CompetitionResultRecorded",
      "type": "event"
    },
    {
      "anonymous": false,
      "inputs": [
        {
          "indexed": true,
          "internalType": "uint256",
          "name": "id",
          "type": "uint256"
        },
        {
          "indexed": false,
          "internalType": "uint256",
          "name": "age",
          "type": "uint256"
        },
        {
          "indexed": false,
          "internalType": "uint256",
          "name": "weight",
          "type": "uint256"
        },
        {
          "indexed": false,
          "internalType": "enum JudoSystem.AgeCategory",
          "name": "ageCategory",
          "type": "uint8"
        },
        {
          "indexed": false,
          "internalType": "enum JudoSystem.WeightCategory",
          "name": "weightCategory",
          "type": "uint8"
        }
      ],
      "name": "DebugInfo",
      "type": "event"
    },
    {
      "anonymous": false,
      "inputs": [
        {
          "indexed": true,
          "internalType": "uint256",
          "name": "id",
          "type": "uint256"
        },
        {
          "indexed": false,
          "internalType": "string",
          "name": "email",
          "type": "string"
        },
        {
          "indexed": false,
          "internalType": "string",
          "name": "phoneNumber",
          "type": "string"
        }
      ],
      "name": "JudokaContactUpdated",
      "type": "event"
    },
    {
      "anonymous": false,
      "inputs": [
        {
          "indexed": true,
          "internalType": "uint256",
          "name": "id",
          "type": "uint256"
        },
        {
          "indexed": false,
          "internalType": "string",
          "name": "name",
          "type": "string"
        },
        {
          "indexed": false,
          "internalType": "address",
          "name": "walletAddress",
          "type": "address"
        },
        {
          "indexed": false,
          "internalType": "enum JudoSystem.BeltLevel",
          "name": "beltLevel",
          "type": "uint8"
        },
        {
          "indexed": false,
          "internalType": "uint256",
          "name": "dateOfBirth",
          "type": "uint256"
        },
        {
          "indexed": false,
          "internalType": "enum JudoSystem.Gender",
          "name": "gender",
          "type": "uint8"
        },
        {
          "indexed": false,
          "internalType": "string",
          "name": "email",
          "type": "string"
        },
        {
          "indexed": false,
          "internalType": "string",
          "name": "phoneNumber",
          "type": "string"
        },
        {
          "indexed": false,
          "internalType": "uint256",
          "name": "age",
          "type": "uint256"
        },
        {
          "indexed": false,
          "internalType": "uint256",
          "name": "weight",
          "type": "uint256"
        },
        {
          "indexed": false,
          "internalType": "string",
          "name": "club",
          "type": "string"
        },
        {
          "indexed": false,
          "internalType": "enum JudoSystem.AgeCategory",
          "name": "ageCategory",
          "type": "uint8"
        },
        {
          "indexed": false,
          "internalType": "enum JudoSystem.WeightCategory",
          "name": "weightCategory",
          "type": "uint8"
        },
        {
          "indexed": false,
          "internalType": "uint256",
          "name": "timestamp",
          "type": "uint256"
        }
      ],
      "name": "JudokaRegistered",
      "type": "event"
    },
    {
      "anonymous": false,
      "inputs": [
        {
          "indexed": true,
          "internalType": "uint256",
          "name": "competitionId",
          "type": "uint256"
        },
        {
          "indexed": false,
          "internalType": "address",
          "name": "participant",
          "type": "address"
        }
      ],
      "name": "ParticipantAdded",
      "type": "event"
    },
    {
      "inputs": [],
      "name": "admin",
      "outputs": [
        {
          "internalType": "address",
          "name": "",
          "type": "address"
        }
      ],
      "stateMutability": "view",
      "type": "function",
      "constant": true
    },
    {
      "inputs": [
        {
          "internalType": "address",
          "name": "",
          "type": "address"
        }
      ],
      "name": "blackBeltAdmins",
      "outputs": [
        {
          "internalType": "bool",
          "name": "",
          "type": "bool"
        }
      ],
      "stateMutability": "view",
      "type": "function",
      "constant": true
    },
    {
      "inputs": [],
      "name": "competitionCount",
      "outputs": [
        {
          "internalType": "uint256",
          "name": "",
          "type": "uint256"
        }
      ],
      "stateMutability": "view",
      "type": "function",
      "constant": true
    },
    {
      "inputs": [
        {
          "internalType": "uint256",
          "name": "",
          "type": "uint256"
        }
      ],
      "name": "competitions",
      "outputs": [
        {
          "internalType": "uint256",
          "name": "id",
          "type": "uint256"
        },
        {
          "internalType": "string",
          "name": "name",
          "type": "string"
        },
        {
          "components": [
            {
              "internalType": "uint8",
              "name": "day",
              "type": "uint8"
            },
            {
              "internalType": "uint8",
              "name": "month",
              "type": "uint8"
            },
            {
              "internalType": "uint16",
              "name": "year",
              "type": "uint16"
            }
          ],
          "internalType": "struct JudoSystem.Date",
          "name": "date",
          "type": "tuple"
        },
        {
          "internalType": "bool",
          "name": "completed",
          "type": "bool"
        },
        {
          "components": [
            {
              "internalType": "address",
              "name": "firstPlace",
              "type": "address"
            },
            {
              "internalType": "address",
              "name": "secondPlace",
              "type": "address"
            },
            {
              "internalType": "address",
              "name": "thirdPlace",
              "type": "address"
            },
            {
              "internalType": "address",
              "name": "fourthPlace",
              "type": "address"
            }
          ],
          "internalType": "struct JudoSystem.CompetitionResult",
          "name": "results",
          "type": "tuple"
        }
      ],
      "stateMutability": "view",
      "type": "function",
      "constant": true
    },
    {
      "inputs": [],
      "name": "judokaCount",
      "outputs": [
        {
          "internalType": "uint256",
          "name": "",
          "type": "uint256"
        }
      ],
      "stateMutability": "view",
      "type": "function",
      "constant": true
    },
    {
      "inputs": [
        {
          "internalType": "address",
          "name": "",
          "type": "address"
        }
      ],
      "name": "judokaIds",
      "outputs": [
        {
          "internalType": "uint256",
          "name": "",
          "type": "uint256"
        }
      ],
      "stateMutability": "view",
      "type": "function",
      "constant": true
    },
    {
      "inputs": [
        {
          "internalType": "uint256",
          "name": "",
          "type": "uint256"
        }
      ],
      "name": "judokaPoints",
      "outputs": [
        {
          "internalType": "uint256",
          "name": "",
          "type": "uint256"
        }
      ],
      "stateMutability": "view",
      "type": "function",
      "constant": true
    },
    {
      "inputs": [
        {
          "internalType": "uint256",
          "name": "",
          "type": "uint256"
        }
      ],
      "name": "judokasBasic",
      "outputs": [
        {
          "internalType": "uint256",
          "name": "id",
          "type": "uint256"
        },
        {
          "internalType": "string",
          "name": "name",
          "type": "string"
        },
        {
          "internalType": "address",
          "name": "walletAddress",
          "type": "address"
        },
        {
          "internalType": "enum JudoSystem.BeltLevel",
          "name": "beltLevel",
          "type": "uint8"
        },
        {
          "components": [
            {
              "internalType": "uint8",
              "name": "day",
              "type": "uint8"
            },
            {
              "internalType": "uint8",
              "name": "month",
              "type": "uint8"
            },
            {
              "internalType": "uint16",
              "name": "year",
              "type": "uint16"
            }
          ],
          "internalType": "struct JudoSystem.Date",
          "name": "birthDate",
          "type": "tuple"
        },
        {
          "internalType": "enum JudoSystem.Gender",
          "name": "gender",
          "type": "uint8"
        }
      ],
      "stateMutability": "view",
      "type": "function",
      "constant": true
    },
    {
      "inputs": [
        {
          "internalType": "uint256",
          "name": "",
          "type": "uint256"
        }
      ],
      "name": "judokasContact",
      "outputs": [
        {
          "internalType": "string",
          "name": "email",
          "type": "string"
        },
        {
          "internalType": "string",
          "name": "phoneNumber",
          "type": "string"
        }
      ],
      "stateMutability": "view",
      "type": "function",
      "constant": true
    },
    {
      "inputs": [
        {
          "internalType": "uint256",
          "name": "",
          "type": "uint256"
        }
      ],
      "name": "judokasPhysical",
      "outputs": [
        {
          "internalType": "uint256",
          "name": "age",
          "type": "uint256"
        },
        {
          "internalType": "uint256",
          "name": "weight",
          "type": "uint256"
        },
        {
          "internalType": "string",
          "name": "club",
          "type": "string"
        },
        {
          "internalType": "enum JudoSystem.AgeCategory",
          "name": "ageCategory",
          "type": "uint8"
        },
        {
          "internalType": "enum JudoSystem.WeightCategory",
          "name": "weightCategory",
          "type": "uint8"
        }
      ],
      "stateMutability": "view",
      "type": "function",
      "constant": true
    },
    {
      "inputs": [
        {
          "internalType": "address",
          "name": "_address",
          "type": "address"
        }
      ],
      "name": "isAdmin",
      "outputs": [
        {
          "internalType": "bool",
          "name": "",
          "type": "bool"
        }
      ],
      "stateMutability": "view",
      "type": "function",
      "constant": true
    },
    {
      "inputs": [
        {
          "internalType": "uint16",
          "name": "_birthYear",
          "type": "uint16"
        }
      ],
      "name": "packDateForJudoka",
      "outputs": [
        {
          "internalType": "uint32",
          "name": "",
          "type": "uint32"
        }
      ],
      "stateMutability": "pure",
      "type": "function",
      "constant": true
    },
    {
      "inputs": [
        {
          "internalType": "uint8",
          "name": "_month",
          "type": "uint8"
        },
        {
          "internalType": "uint8",
          "name": "_day",
          "type": "uint8"
        }
      ],
      "name": "packDateForCompetition",
      "outputs": [
        {
          "internalType": "uint16",
          "name": "",
          "type": "uint16"
        }
      ],
      "stateMutability": "pure",
      "type": "function",
      "constant": true
    },
    {
      "inputs": [
        {
          "internalType": "uint256",
          "name": "_age",
          "type": "uint256"
        }
      ],
      "name": "getAgeCategory",
      "outputs": [
        {
          "internalType": "enum JudoSystem.AgeCategory",
          "name": "",
          "type": "uint8"
        }
      ],
      "stateMutability": "pure",
      "type": "function",
      "constant": true
    },
    {
      "inputs": [
        {
          "internalType": "uint256",
          "name": "_weight",
          "type": "uint256"
        }
      ],
      "name": "getWeightCategory",
      "outputs": [
        {
          "internalType": "enum JudoSystem.WeightCategory",
          "name": "",
          "type": "uint8"
        }
      ],
      "stateMutability": "pure",
      "type": "function",
      "constant": true
    },
    {
      "inputs": [
        {
          "internalType": "uint256",
          "name": "_age",
          "type": "uint256"
        }
      ],
      "name": "getAgeCategoryByAge",
      "outputs": [
        {
          "internalType": "enum JudoSystem.AgeCategory",
          "name": "",
          "type": "uint8"
        }
      ],
      "stateMutability": "view",
      "type": "function",
      "constant": true
    },
    {
      "inputs": [
        {
          "internalType": "uint256",
          "name": "_weight",
          "type": "uint256"
        }
      ],
      "name": "getWeightCategoryByWeight",
      "outputs": [
        {
          "internalType": "enum JudoSystem.WeightCategory",
          "name": "",
          "type": "uint8"
        }
      ],
      "stateMutability": "view",
      "type": "function",
      "constant": true
    },
    {
      "inputs": [
        {
          "components": [
            {
              "internalType": "uint8",
              "name": "day",
              "type": "uint8"
            },
            {
              "internalType": "uint8",
              "name": "month",
              "type": "uint8"
            },
            {
              "internalType": "uint16",
              "name": "year",
              "type": "uint16"
            }
          ],
          "internalType": "struct JudoSystem.Date",
          "name": "_birthDate",
          "type": "tuple"
        }
      ],
      "name": "calculateAge",
      "outputs": [
        {
          "internalType": "uint256",
          "name": "",
          "type": "uint256"
        }
      ],
      "stateMutability": "view",
      "type": "function",
      "constant": true
    },
    {
      "inputs": [
        {
          "internalType": "uint32",
          "name": "_packedDate",
          "type": "uint32"
        }
      ],
      "name": "unpackDate",
      "outputs": [
        {
          "internalType": "uint16",
          "name": "year",
          "type": "uint16"
        },
        {
          "internalType": "uint8",
          "name": "month",
          "type": "uint8"
        },
        {
          "internalType": "uint8",
          "name": "day",
          "type": "uint8"
        }
      ],
      "stateMutability": "pure",
      "type": "function",
      "constant": true
    },
    {
      "inputs": [
        {
          "internalType": "string",
          "name": "_name",
          "type": "string"
        },
        {
          "internalType": "address",
          "name": "_walletAddress",
          "type": "address"
        },
        {
          "components": [
            {
              "internalType": "uint8",
              "name": "day",
              "type": "uint8"
            },
            {
              "internalType": "uint8",
              "name": "month",
              "type": "uint8"
            },
            {
              "internalType": "uint16",
              "name": "year",
              "type": "uint16"
            }
          ],
          "internalType": "struct JudoSystem.Date",
          "name": "_birthDate",
          "type": "tuple"
        },
        {
          "internalType": "enum JudoSystem.Gender",
          "name": "_gender",
          "type": "uint8"
        },
        {
          "internalType": "uint256",
          "name": "_weight",
          "type": "uint256"
        },
        {
          "internalType": "string",
          "name": "_club",
          "type": "string"
        }
      ],
      "name": "registerJudoka",
      "outputs": [],
      "stateMutability": "nonpayable",
      "type": "function"
    },
    {
      "inputs": [
        {
          "internalType": "uint256",
          "name": "_id",
          "type": "uint256"
        }
      ],
      "name": "getJudokaDOB",
      "outputs": [
        {
          "internalType": "uint16",
          "name": "year",
          "type": "uint16"
        },
        {
          "internalType": "uint8",
          "name": "month",
          "type": "uint8"
        },
        {
          "internalType": "uint8",
          "name": "day",
          "type": "uint8"
        }
      ],
      "stateMutability": "view",
      "type": "function",
      "constant": true
    },
    {
      "inputs": [
        {
          "internalType": "uint256",
          "name": "_id",
          "type": "uint256"
        },
        {
          "internalType": "string",
          "name": "_email",
          "type": "string"
        },
        {
          "internalType": "string",
          "name": "_phoneNumber",
          "type": "string"
        }
      ],
      "name": "updateJudokaContactDetails",
      "outputs": [],
      "stateMutability": "nonpayable",
      "type": "function"
    },
    {
      "inputs": [
        {
          "internalType": "uint256",
          "name": "_id",
          "type": "uint256"
        }
      ],
      "name": "getJudokaInfo",
      "outputs": [
        {
          "components": [
            {
              "components": [
                {
                  "internalType": "uint256",
                  "name": "id",
                  "type": "uint256"
                },
                {
                  "internalType": "string",
                  "name": "name",
                  "type": "string"
                },
                {
                  "internalType": "address",
                  "name": "walletAddress",
                  "type": "address"
                },
                {
                  "internalType": "enum JudoSystem.BeltLevel",
                  "name": "beltLevel",
                  "type": "uint8"
                },
                {
                  "components": [
                    {
                      "internalType": "uint8",
                      "name": "day",
                      "type": "uint8"
                    },
                    {
                      "internalType": "uint8",
                      "name": "month",
                      "type": "uint8"
                    },
                    {
                      "internalType": "uint16",
                      "name": "year",
                      "type": "uint16"
                    }
                  ],
                  "internalType": "struct JudoSystem.Date",
                  "name": "birthDate",
                  "type": "tuple"
                },
                {
                  "internalType": "enum JudoSystem.Gender",
                  "name": "gender",
                  "type": "uint8"
                }
              ],
              "internalType": "struct JudoSystem.JudokaBasic",
              "name": "basic",
              "type": "tuple"
            },
            {
              "components": [
                {
                  "internalType": "string",
                  "name": "email",
                  "type": "string"
                },
                {
                  "internalType": "string",
                  "name": "phoneNumber",
                  "type": "string"
                }
              ],
              "internalType": "struct JudoSystem.JudokaContact",
              "name": "contact",
              "type": "tuple"
            },
            {
              "components": [
                {
                  "internalType": "uint256",
                  "name": "age",
                  "type": "uint256"
                },
                {
                  "internalType": "uint256",
                  "name": "weight",
                  "type": "uint256"
                },
                {
                  "internalType": "string",
                  "name": "club",
                  "type": "string"
                },
                {
                  "internalType": "enum JudoSystem.AgeCategory",
                  "name": "ageCategory",
                  "type": "uint8"
                },
                {
                  "internalType": "enum JudoSystem.WeightCategory",
                  "name": "weightCategory",
                  "type": "uint8"
                }
              ],
              "internalType": "struct JudoSystem.JudokaPhysical",
              "name": "physical",
              "type": "tuple"
            }
          ],
          "internalType": "struct JudoSystem.FullJudokaInfo",
          "name": "",
          "type": "tuple"
        }
      ],
      "stateMutability": "view",
      "type": "function",
      "constant": true
    },
    {
      "inputs": [
        {
          "internalType": "uint256",
          "name": "_id",
          "type": "uint256"
        }
      ],
      "name": "getBeltLevel",
      "outputs": [
        {
          "internalType": "enum JudoSystem.BeltLevel",
          "name": "",
          "type": "uint8"
        }
      ],
      "stateMutability": "view",
      "type": "function",
      "constant": true
    },
    {
      "inputs": [
        {
          "internalType": "uint256",
          "name": "_id",
          "type": "uint256"
        },
        {
          "internalType": "enum JudoSystem.BeltLevel",
          "name": "_newBeltLevel",
          "type": "uint8"
        }
      ],
      "name": "promoteJudoka",
      "outputs": [],
      "stateMutability": "nonpayable",
      "type": "function"
    },
    {
      "inputs": [
        {
          "internalType": "address",
          "name": "_address",
          "type": "address"
        }
      ],
      "name": "isBlackBelt",
      "outputs": [
        {
          "internalType": "bool",
          "name": "",
          "type": "bool"
        }
      ],
      "stateMutability": "view",
      "type": "function",
      "constant": true
    },
    {
      "inputs": [
        {
          "internalType": "uint256",
          "name": "_id",
          "type": "uint256"
        },
        {
          "internalType": "address",
          "name": "_sender",
          "type": "address"
        }
      ],
      "name": "isAuthorized",
      "outputs": [
        {
          "internalType": "bool",
          "name": "",
          "type": "bool"
        }
      ],
      "stateMutability": "view",
      "type": "function",
      "constant": true
    },
    {
      "inputs": [
        {
          "internalType": "uint256",
          "name": "_id",
          "type": "uint256"
        },
        {
          "internalType": "uint256",
          "name": "_points",
          "type": "uint256"
        }
      ],
      "name": "updateJudokaPoints",
      "outputs": [],
      "stateMutability": "nonpayable",
      "type": "function"
    },
    {
      "inputs": [
        {
          "internalType": "string",
          "name": "_name",
          "type": "string"
        },
        {
          "internalType": "uint8",
          "name": "_day",
          "type": "uint8"
        },
        {
          "internalType": "uint8",
          "name": "_month",
          "type": "uint8"
        },
        {
          "internalType": "uint16",
          "name": "_year",
          "type": "uint16"
        }
      ],
      "name": "createCompetition",
      "outputs": [],
      "stateMutability": "nonpayable",
      "type": "function"
    },
    {
      "inputs": [
        {
          "internalType": "uint256",
          "name": "_competitionId",
          "type": "uint256"
        },
        {
          "internalType": "address",
          "name": "_participant",
          "type": "address"
        }
      ],
      "name": "addParticipant",
      "outputs": [],
      "stateMutability": "nonpayable",
      "type": "function"
    },
    {
      "inputs": [
        {
          "internalType": "uint256",
          "name": "_competitionId",
          "type": "uint256"
        },
        {
          "internalType": "address",
          "name": "_firstPlace",
          "type": "address"
        },
        {
          "internalType": "address",
          "name": "_secondPlace",
          "type": "address"
        },
        {
          "internalType": "address",
          "name": "_thirdPlace",
          "type": "address"
        },
        {
          "internalType": "address",
          "name": "_fourthPlace",
          "type": "address"
        },
        {
          "internalType": "uint256",
          "name": "_firstPlacePoints",
          "type": "uint256"
        },
        {
          "internalType": "uint256",
          "name": "_secondPlacePoints",
          "type": "uint256"
        },
        {
          "internalType": "uint256",
          "name": "_thirdPlacePoints",
          "type": "uint256"
        },
        {
          "internalType": "uint256",
          "name": "_fourthPlacePoints",
          "type": "uint256"
        }
      ],
      "name": "recordCompetitionResult",
      "outputs": [],
      "stateMutability": "nonpayable",
      "type": "function"
    }
  ],
  "bytecode": "0x608060405234801561001057600080fd5b5033600960006101000a81548173ffffffffffffffffffffffffffffffffffffffff021916908373ffffffffffffffffffffffffffffffffffffffff1602179055506001600560003373ffffffffffffffffffffffffffffffffffffffff1673ffffffffffffffffffffffffffffffffffffffff16815260200190815260200160002060006101000a81548160ff021916908315150217905550614e08806100b96000396000f3fe608060405234801561001057600080fd5b50600436106101e55760003560e01c8063609c6d7f1161010f578063cab96b70116100a2578063e7651d1f11610071578063e7651d1f1461065b578063e9f86f1e1461068c578063f215bb08146106bc578063f851a440146106ec576101e5565b8063cab96b70146105a9578063ccf28e86146105c7578063d7984a29146105f7578063d8c1eb541461062b576101e5565b806397a3e66a116100de57806397a3e66a146104f25780639daa52fd146105275780639f6828d914610557578063a16817701461058b576101e5565b8063609c6d7f1461045a5780636794a7ec1461048a5780636af8bf75146104a65780638d44d9d9146104c2576101e5565b80631ef31992116101875780633ab9f6d8116101565780633ab9f6d81461039657806345504a83146103c657806345f88af7146103f657806358fa084014610428576101e5565b80631ef31992146102fe57806322b9dd901461032e57806324d7806c1461034a57806338897f9a1461037a576101e5565b806316ac952a116101c357806316ac952a1461027a57806318d85e53146102965780631b3ea351146102b25780631b8558dd146102e2576101e5565b80630745aa36146101ea578063080d36341461021a57806310c1224c1461024a575b600080fd5b61020460048036038101906101ff9190613724565b61070a565b60405161021191906142f5565b60405180910390f35b610234600480360381019061022f91906136fb565b61071c565b604051610241919061480a565b60405180910390f35b610264600480360381019061025f9190613574565b61072a565b604051610271919061426d565b60405180910390f35b610294600480360381019061028f919061359d565b610808565b005b6102b060048036038101906102ab919061374d565b610ea2565b005b6102cc60048036038101906102c791906136d2565b611001565b6040516102d9919061468c565b60405180910390f35b6102fc60048036038101906102f7919061390a565b611056565b005b61031860048036038101906103139190613724565b61111d565b60405161032591906142a3565b60405180910390f35b6103486004803603810190610343919061384f565b61119a565b005b610364600480360381019061035f9190613574565b6114dc565b604051610371919061426d565b60405180910390f35b610394600480360381019061038f9190613789565b61158a565b005b6103b060048036038101906103ab9190613574565b611c10565b6040516103bd919061468c565b60405180910390f35b6103e060048036038101906103db9190613724565b611c28565b6040516103ed9190614618565b60405180910390f35b610410600480360381019061040b9190613724565b612240565b60405161041f93929190614655565b60405180910390f35b610442600480360381019061043d9190613946565b6122a3565b60405161045193929190614655565b60405180910390f35b610474600480360381019061046f919061374d565b6122d2565b604051610481919061426d565b60405180910390f35b6104a4600480360381019061049f9190613657565b612399565b005b6104c060048036038101906104bb919061388b565b6127d0565b005b6104dc60048036038101906104d79190613724565b612979565b6040516104e99190614288565b60405180910390f35b61050c60048036038101906105079190613724565b61298b565b60405161051e969594939291906146a7565b60405180910390f35b610541600480360381019061053c919061396f565b612aed565b60405161054e919061463a565b60405180910390f35b610571600480360381019061056c9190613724565b612b08565b604051610582959493929190614710565b60405180910390f35b610593612d99565b6040516105a0919061468c565b60405180910390f35b6105b1612d9f565b6040516105be919061468c565b60405180910390f35b6105e160048036038101906105dc9190613574565b612da5565b6040516105ee919061426d565b60405180910390f35b610611600480360381019061060c9190613724565b612dc5565b6040516106229594939291906147b0565b60405180910390f35b61064560048036038101906106409190613724565b612e9d565b60405161065291906142f5565b60405180910390f35b61067560048036038101906106709190613724565b612f15565b6040516106839291906143f1565b60405180910390f35b6106a660048036038101906106a19190613724565b613049565b6040516106b3919061468c565b60405180910390f35b6106d660048036038101906106d19190613724565b613061565b6040516106e39190614288565b60405180910390f35b6106f46130ed565b604051610701919061420d565b60405180910390f35b600061071582612e9d565b9050919050565b60008161ffff169050919050565b6000600680811115610765577f4e487b7100000000000000000000000000000000000000000000000000000000600052602160045260246000fd5b60066000600260008673ffffffffffffffffffffffffffffffffffffffff1673ffffffffffffffffffffffffffffffffffffffff16815260200190815260200160002054815260200190815260200160002060020160149054906101000a900460ff166006811115610800577f4e487b7100000000000000000000000000000000000000000000000000000000600052602160045260246000fd5b149050919050565b600073ffffffffffffffffffffffffffffffffffffffff168573ffffffffffffffffffffffffffffffffffffffff161415610878576040517f08c379a000000000000000000000000000000000000000000000000000000000815260040161086f90614578565b60405180910390fd5b6000600260008773ffffffffffffffffffffffffffffffffffffffff1673ffffffffffffffffffffffffffffffffffffffff16815260200190815260200160002054146108fa576040517f08c379a00000000000000000000000000000000000000000000000000000000081526004016108f190614558565b60405180910390fd5b600061090585611001565b9050600160005461091691906148eb565b7f834128f6694365adc4f55fcf51d1687a1945ca3c3fbebe22a29a3204b0df313e828561094285613061565b61094b88612e9d565b60405161095b949392919061476b565b60405180910390a260008081548092919061097590614baa565b91905055506040518060c0016040528060005481526020018881526020018773ffffffffffffffffffffffffffffffffffffffff168152602001600060068111156109e9577f4e487b7100000000000000000000000000000000000000000000000000000000600052602160045260246000fd5b8152602001868152602001856001811115610a2d577f4e487b7100000000000000000000000000000000000000000000000000000000600052602160045260246000fd5b8152506006600080548152602001908152602001600020600082015181600001556020820151816001019080519060200190610a6a929190613113565b5060408201518160020160006101000a81548173ffffffffffffffffffffffffffffffffffffffff021916908373ffffffffffffffffffffffffffffffffffffffff16021790555060608201518160020160146101000a81548160ff02191690836006811115610b03577f4e487b7100000000000000000000000000000000000000000000000000000000600052602160045260246000fd5b021790555060808201518160030160008201518160000160006101000a81548160ff021916908360ff16021790555060208201518160000160016101000a81548160ff021916908360ff16021790555060408201518160000160026101000a81548161ffff021916908361ffff160217905550505060a08201518160040160006101000a81548160ff02191690836001811115610bc9577f4e487b7100000000000000000000000000000000000000000000000000000000600052602160045260246000fd5b021790555090505060405180604001604052806040518060200160405280600081525081526020016040518060200160405280600081525081525060076000805481526020019081526020016000206000820151816000019080519060200190610c34929190613113565b506020820151816001019080519060200190610c51929190613113565b509050506040518060a00160405280828152602001848152602001838152602001610c7b83613061565b6004811115610cb3577f4e487b7100000000000000000000000000000000000000000000000000000000600052602160045260246000fd5b8152602001610cc185612e9d565b6006811115610cf9577f4e487b7100000000000000000000000000000000000000000000000000000000600052602160045260246000fd5b815250600860008054815260200190815260200160002060008201518160000155602082015181600101556040820151816002019080519060200190610d40929190613113565b5060608201518160030160006101000a81548160ff02191690836004811115610d92577f4e487b7100000000000000000000000000000000000000000000000000000000600052602160045260246000fd5b021790555060808201518160030160016101000a81548160ff02191690836006811115610de8577f4e487b7100000000000000000000000000000000000000000000000000000000600052602160045260246000fd5b0217905550905050600054600260008873ffffffffffffffffffffffffffffffffffffffff1673ffffffffffffffffffffffffffffffffffffffff168152602001908152602001600020819055506000547f91b08635671aac60e9f3dda55c450b1170d8c93ab4e68fc5737cc03948f7d45988886000896040015189878a8a610e708b613061565b610e798e612e9d565b42604051610e919b9a99989796959493929190614310565b60405180910390a250505050505050565b610eab336114dc565b610eea576040517f08c379a0000000000000000000000000000000000000000000000000000000008152600401610ee190614538565b60405180910390fd5b6004600083815260200190815260200160002060040160009054906101000a900460ff1615610f4e576040517f08c379a0000000000000000000000000000000000000000000000000000000008152600401610f45906145d8565b60405180910390fd5b60046000838152602001908152602001600020600301819080600181540180825580915050600190039060005260206000200160009091909190916101000a81548173ffffffffffffffffffffffffffffffffffffffff021916908373ffffffffffffffffffffffffffffffffffffffff160217905550817f12246ba2398106df92bc0281a1eece14e5b8516c5c3dab76205391650e39fddb82604051610ff5919061420d565b60405180910390a25050565b6000806107b26301e13380426110179190614941565b61102191906148eb565b9050826040015161ffff16811161103957600061104e565b826040015161ffff168161104d91906149e9565b5b915050919050565b61105f336114dc565b61109e576040517f08c379a000000000000000000000000000000000000000000000000000000000815260040161109590614538565b60405180910390fd5b6000821180156110b057506000548211155b6110ef576040517f08c379a00000000000000000000000000000000000000000000000000000000081526004016110e690614478565b60405180910390fd5b8060036000848152602001908152602001600020600082825461111291906148eb565b925050819055505050565b6000808211801561113057506000548211155b61116f576040517f08c379a0000000000000000000000000000000000000000000000000000000008152600401611166906145b8565b60405180910390fd5b6006600083815260200190815260200160002060020160149054906101000a900460ff169050919050565b6111a3336114dc565b6111e2576040517f08c379a00000000000000000000000000000000000000000000000000000000081526004016111d990614538565b60405180910390fd5b6000821180156111f457506000548211155b611233576040517f08c379a000000000000000000000000000000000000000000000000000000000815260040161122a906145b8565b60405180910390fd5b6006600083815260200190815260200160002060020160149054906101000a900460ff16600681111561128f577f4e487b7100000000000000000000000000000000000000000000000000000000600052602160045260246000fd5b8160068111156112c8577f4e487b7100000000000000000000000000000000000000000000000000000000600052602160045260246000fd5b11611308576040517f08c379a00000000000000000000000000000000000000000000000000000000081526004016112ff90614498565b60405180910390fd5b60006006600084815260200190815260200160002060020160149054906101000a900460ff169050816006600085815260200190815260200160002060020160146101000a81548160ff0219169083600681111561138f577f4e487b7100000000000000000000000000000000000000000000000000000000600052602160045260246000fd5b02179055506006808111156113cd577f4e487b7100000000000000000000000000000000000000000000000000000000600052602160045260246000fd5b826006811115611406577f4e487b7100000000000000000000000000000000000000000000000000000000600052602160045260246000fd5b141561149b576001600560006006600087815260200190815260200160002060020160009054906101000a900473ffffffffffffffffffffffffffffffffffffffff1673ffffffffffffffffffffffffffffffffffffffff1673ffffffffffffffffffffffffffffffffffffffff16815260200190815260200160002060006101000a81548160ff0219169083151502179055505b827f01ae96fe1baf9d2d284e6a11b7ab2a76e1c8b047b807650660b4370d50462f238284426040516114cf939291906142be565b60405180910390a2505050565b6000600960009054906101000a900473ffffffffffffffffffffffffffffffffffffffff1673ffffffffffffffffffffffffffffffffffffffff168273ffffffffffffffffffffffffffffffffffffffff1614806115835750600560008373ffffffffffffffffffffffffffffffffffffffff1673ffffffffffffffffffffffffffffffffffffffff16815260200190815260200160002060009054906101000a900460ff165b9050919050565b611593336114dc565b6115d2576040517f08c379a00000000000000000000000000000000000000000000000000000000081526004016115c990614538565b60405180910390fd5b600460008a815260200190815260200160002060040160009054906101000a900460ff1615611636576040517f08c379a000000000000000000000000000000000000000000000000000000000815260040161162d906145d8565b60405180910390fd5b6000600460008b81526020019081526020016000206003018054905011611692576040517f08c379a0000000000000000000000000000000000000000000000000000000008152600401611689906144d8565b60405180910390fd5b6000600260008a73ffffffffffffffffffffffffffffffffffffffff1673ffffffffffffffffffffffffffffffffffffffff168152602001908152602001600020541415611715576040517f08c379a000000000000000000000000000000000000000000000000000000000815260040161170c90614598565b60405180910390fd5b6000600260008973ffffffffffffffffffffffffffffffffffffffff1673ffffffffffffffffffffffffffffffffffffffff168152602001908152602001600020541415611798576040517f08c379a000000000000000000000000000000000000000000000000000000000815260040161178f90614518565b60405180910390fd5b6000600260008873ffffffffffffffffffffffffffffffffffffffff1673ffffffffffffffffffffffffffffffffffffffff16815260200190815260200160002054141561181b576040517f08c379a000000000000000000000000000000000000000000000000000000000815260040161181290614458565b60405180910390fd5b6000600260008773ffffffffffffffffffffffffffffffffffffffff1673ffffffffffffffffffffffffffffffffffffffff16815260200190815260200160002054141561189e576040517f08c379a0000000000000000000000000000000000000000000000000000000008152600401611895906144b8565b60405180910390fd5b6001600460008b815260200190815260200160002060040160006101000a81548160ff02191690831515021790555060405180608001604052808973ffffffffffffffffffffffffffffffffffffffff1681526020018873ffffffffffffffffffffffffffffffffffffffff1681526020018773ffffffffffffffffffffffffffffffffffffffff1681526020018673ffffffffffffffffffffffffffffffffffffffff16815250600460008b815260200190815260200160002060050160008201518160000160006101000a81548173ffffffffffffffffffffffffffffffffffffffff021916908373ffffffffffffffffffffffffffffffffffffffff16021790555060208201518160010160006101000a81548173ffffffffffffffffffffffffffffffffffffffff021916908373ffffffffffffffffffffffffffffffffffffffff16021790555060408201518160020160006101000a81548173ffffffffffffffffffffffffffffffffffffffff021916908373ffffffffffffffffffffffffffffffffffffffff16021790555060608201518160030160006101000a81548173ffffffffffffffffffffffffffffffffffffffff021916908373ffffffffffffffffffffffffffffffffffffffff1602179055509050506000841115611ace57611acd600260008a73ffffffffffffffffffffffffffffffffffffffff1673ffffffffffffffffffffffffffffffffffffffff1681526020019081526020016000205485611056565b5b6000831115611b2157611b20600260008973ffffffffffffffffffffffffffffffffffffffff1673ffffffffffffffffffffffffffffffffffffffff1681526020019081526020016000205484611056565b5b6000821115611b7457611b73600260008873ffffffffffffffffffffffffffffffffffffffff1673ffffffffffffffffffffffffffffffffffffffff1681526020019081526020016000205483611056565b5b6000811115611bc757611bc6600260008773ffffffffffffffffffffffffffffffffffffffff1673ffffffffffffffffffffffffffffffffffffffff1681526020019081526020016000205482611056565b5b887f19974ab114e4d06de9fa6a18e214db804b1d2a9b1acb21496207e2deafbbb9dc89898989604051611bfd9493929190614228565b60405180910390a2505050505050505050565b60026020528060005260406000206000915090505481565b611c30613199565b600082118015611c4257506000548211155b611c81576040517f08c379a0000000000000000000000000000000000000000000000000000000008152600401611c78906145b8565b60405180910390fd5b6040518060600160405280600660008581526020019081526020016000206040518060c001604052908160008201548152602001600182018054611cc490614b78565b80601f0160208091040260200160405190810160405280929190818152602001828054611cf090614b78565b8015611d3d5780601f10611d1257610100808354040283529160200191611d3d565b820191906000526020600020905b815481529060010190602001808311611d2057829003601f168201915b505050505081526020016002820160009054906101000a900473ffffffffffffffffffffffffffffffffffffffff1673ffffffffffffffffffffffffffffffffffffffff1673ffffffffffffffffffffffffffffffffffffffff1681526020016002820160149054906101000a900460ff166006811115611de7577f4e487b7100000000000000000000000000000000000000000000000000000000600052602160045260246000fd5b6006811115611e1f577f4e487b7100000000000000000000000000000000000000000000000000000000600052602160045260246000fd5b8152602001600382016040518060600160405290816000820160009054906101000a900460ff1660ff1660ff1681526020016000820160019054906101000a900460ff1660ff1660ff1681526020016000820160029054906101000a900461ffff1661ffff1661ffff168152505081526020016004820160009054906101000a900460ff166001811115611edc577f4e487b7100000000000000000000000000000000000000000000000000000000600052602160045260246000fd5b6001811115611f14577f4e487b7100000000000000000000000000000000000000000000000000000000600052602160045260246000fd5b81525050815260200160076000858152602001908152602001600020604051806040016040529081600082018054611f4b90614b78565b80601f0160208091040260200160405190810160405280929190818152602001828054611f7790614b78565b8015611fc45780601f10611f9957610100808354040283529160200191611fc4565b820191906000526020600020905b815481529060010190602001808311611fa757829003601f168201915b50505050508152602001600182018054611fdd90614b78565b80601f016020809104026020016040519081016040528092919081815260200182805461200990614b78565b80156120565780601f1061202b57610100808354040283529160200191612056565b820191906000526020600020905b81548152906001019060200180831161203957829003601f168201915b5050505050815250508152602001600860008581526020019081526020016000206040518060a001604052908160008201548152602001600182015481526020016002820180546120a690614b78565b80601f01602080910402602001604051908101604052809291908181526020018280546120d290614b78565b801561211f5780601f106120f45761010080835404028352916020019161211f565b820191906000526020600020905b81548152906001019060200180831161210257829003601f168201915b505050505081526020016003820160009054906101000a900460ff166004811115612173577f4e487b7100000000000000000000000000000000000000000000000000000000600052602160045260246000fd5b60048111156121ab577f4e487b7100000000000000000000000000000000000000000000000000000000600052602160045260246000fd5b81526020016003820160019054906101000a900460ff1660068111156121fa577f4e487b7100000000000000000000000000000000000000000000000000000000600052602160045260246000fd5b6006811115612232577f4e487b7100000000000000000000000000000000000000000000000000000000600052602160045260246000fd5b815250508152509050919050565b6000806000806006600086815260200190815260200160002060030190508060000160029054906101000a900461ffff1693508060000160019054906101000a900460ff1692508060000160009054906101000a900460ff169150509193909250565b600080600060108463ffffffff16901c925060ff60088563ffffffff16901c16915060ff841690509193909250565b60006006600084815260200190815260200160002060020160009054906101000a900473ffffffffffffffffffffffffffffffffffffffff1673ffffffffffffffffffffffffffffffffffffffff168273ffffffffffffffffffffffffffffffffffffffff1614806123915750600960009054906101000a900473ffffffffffffffffffffffffffffffffffffffff1673ffffffffffffffffffffffffffffffffffffffff168273ffffffffffffffffffffffffffffffffffffffff16145b905092915050565b6123a2336114dc565b6123e1576040517f08c379a00000000000000000000000000000000000000000000000000000000081526004016123d890614538565b60405180910390fd5b600060405180606001604052808560ff1681526020018460ff1681526020018361ffff16815250905060006040518060800160405280600073ffffffffffffffffffffffffffffffffffffffff168152602001600073ffffffffffffffffffffffffffffffffffffffff168152602001600073ffffffffffffffffffffffffffffffffffffffff168152602001600073ffffffffffffffffffffffffffffffffffffffff1681525090506001600081548092919061249e90614baa565b91905055506040518060c001604052806001548152602001878152602001838152602001600067ffffffffffffffff811115612503577f4e487b7100000000000000000000000000000000000000000000000000000000600052604160045260246000fd5b6040519080825280602002602001820160405280156125315781602001602082028036833780820191505090505b5081526020016000151581526020018281525060046000600154815260200190815260200160002060008201518160000155602082015181600101908051906020019061257f929190613113565b5060408201518160020160008201518160000160006101000a81548160ff021916908360ff16021790555060208201518160000160016101000a81548160ff021916908360ff16021790555060408201518160000160026101000a81548161ffff021916908361ffff1602179055505050606082015181600301908051906020019061260c9291906131cc565b5060808201518160040160006101000a81548160ff02191690831515021790555060a08201518160050160008201518160000160006101000a81548173ffffffffffffffffffffffffffffffffffffffff021916908373ffffffffffffffffffffffffffffffffffffffff16021790555060208201518160010160006101000a81548173ffffffffffffffffffffffffffffffffffffffff021916908373ffffffffffffffffffffffffffffffffffffffff16021790555060408201518160020160006101000a81548173ffffffffffffffffffffffffffffffffffffffff021916908373ffffffffffffffffffffffffffffffffffffffff16021790555060608201518160030160006101000a81548173ffffffffffffffffffffffffffffffffffffffff021916908373ffffffffffffffffffffffffffffffffffffffff16021790555050509050506001547f527887ed6033dc7f6637d06840290a881f67a7f6b0b297598a5a88195bba4f6d878760ff1660648861278d91906149ae565b60ff166127108861279e9190614972565b6127a891906148b3565b6127b291906148b3565b6040516127c0929190614428565b60405180910390a2505050505050565b6000831180156127e257506000548311155b612821576040517f08c379a0000000000000000000000000000000000000000000000000000000008152600401612818906144f8565b60405180910390fd5b6006600084815260200190815260200160002060020160009054906101000a900473ffffffffffffffffffffffffffffffffffffffff1673ffffffffffffffffffffffffffffffffffffffff163373ffffffffffffffffffffffffffffffffffffffff1614806128965750612895336114dc565b5b6128d5576040517f08c379a00000000000000000000000000000000000000000000000000000000081526004016128cc906145f8565b60405180910390fd5b604051806040016040528083815260200182815250600760008581526020019081526020016000206000820151816000019080519060200190612919929190613113565b506020820151816001019080519060200190612936929190613113565b50905050827f3a2df04b3034672d2c2b1dad7a1a514a04aa7bca1f226958091c379b472dadbf838360405161296c9291906143f1565b60405180910390a2505050565b600061298482613061565b9050919050565b60066020528060005260406000206000915090508060000154908060010180546129b490614b78565b80601f01602080910402602001604051908101604052809291908181526020018280546129e090614b78565b8015612a2d5780601f10612a0257610100808354040283529160200191612a2d565b820191906000526020600020905b815481529060010190602001808311612a1057829003601f168201915b5050505050908060020160009054906101000a900473ffffffffffffffffffffffffffffffffffffffff16908060020160149054906101000a900460ff1690806003016040518060600160405290816000820160009054906101000a900460ff1660ff1660ff1681526020016000820160019054906101000a900460ff1660ff1660ff1681526020016000820160029054906101000a900461ffff1661ffff1661ffff1681525050908060040160009054906101000a900460ff16905086565b60008160ff1660088460ff1661ffff16901b17905092915050565b6004602052806000526040600020600091509050806000015490806001018054612b3190614b78565b80601f0160208091040260200160405190810160405280929190818152602001828054612b5d90614b78565b8015612baa5780601f10612b7f57610100808354040283529160200191612baa565b820191906000526020600020905b815481529060010190602001808311612b8d57829003601f168201915b505050505090806002016040518060600160405290816000820160009054906101000a900460ff1660ff1660ff1681526020016000820160019054906101000a900460ff1660ff1660ff1681526020016000820160029054906101000a900461ffff1661ffff1661ffff1681525050908060040160009054906101000a900460ff1690806005016040518060800160405290816000820160009054906101000a900473ffffffffffffffffffffffffffffffffffffffff1673ffffffffffffffffffffffffffffffffffffffff1673ffffffffffffffffffffffffffffffffffffffff1681526020016001820160009054906101000a900473ffffffffffffffffffffffffffffffffffffffff1673ffffffffffffffffffffffffffffffffffffffff1673ffffffffffffffffffffffffffffffffffffffff1681526020016002820160009054906101000a900473ffffffffffffffffffffffffffffffffffffffff1673ffffffffffffffffffffffffffffffffffffffff1673ffffffffffffffffffffffffffffffffffffffff1681526020016003820160009054906101000a900473ffffffffffffffffffffffffffffffffffffffff1673ffffffffffffffffffffffffffffffffffffffff1673ffffffffffffffffffffffffffffffffffffffff1681525050905085565b60015481565b60005481565b60056020528060005260406000206000915054906101000a900460ff1681565b6008602052806000526040600020600091509050806000015490806001015490806002018054612df490614b78565b80601f0160208091040260200160405190810160405280929190818152602001828054612e2090614b78565b8015612e6d5780601f10612e4257610100808354040283529160200191612e6d565b820191906000526020600020905b815481529060010190602001808311612e5057829003601f168201915b5050505050908060030160009054906101000a900460ff16908060030160019054906101000a900460ff16905085565b6000603c821015612eb15760009050612f10565b6042821015612ec35760019050612f10565b6049821015612ed55760029050612f10565b6051821015612ee75760039050612f10565b605a821015612ef95760049050612f10565b6064821015612f0b5760059050612f10565b600690505b919050565b6007602052806000526040600020600091509050806000018054612f3890614b78565b80601f0160208091040260200160405190810160405280929190818152602001828054612f6490614b78565b8015612fb15780601f10612f8657610100808354040283529160200191612fb1565b820191906000526020600020905b815481529060010190602001808311612f9457829003601f168201915b505050505090806001018054612fc690614b78565b80601f0160208091040260200160405190810160405280929190818152602001828054612ff290614b78565b801561303f5780601f106130145761010080835404028352916020019161303f565b820191906000526020600020905b81548152906001019060200180831161302257829003601f168201915b5050505050905082565b60036020528060005260406000206000915090505481565b6000600d82101580156130755750600e8211155b1561308357600090506130e8565b600f8210158015613095575060118211155b156130a357600190506130e8565b601282101580156130b5575060148211155b156130c357600290506130e8565b601582101580156130d55750601e8211155b156130e357600390506130e8565b600490505b919050565b600960009054906101000a900473ffffffffffffffffffffffffffffffffffffffff1681565b82805461311f90614b78565b90600052602060002090601f0160209004810192826131415760008555613188565b82601f1061315a57805160ff1916838001178555613188565b82800160010185558215613188579182015b8281111561318757825182559160200191906001019061316c565b5b5090506131959190613256565b5090565b60405180606001604052806131ac613273565b81526020016131b9613335565b81526020016131c661334f565b81525090565b828054828255906000526020600020908101928215613245579160200282015b828111156132445782518260006101000a81548173ffffffffffffffffffffffffffffffffffffffff021916908373ffffffffffffffffffffffffffffffffffffffff160217905550916020019190600101906131ec565b5b5090506132529190613256565b5090565b5b8082111561326f576000816000905550600101613257565b5090565b6040518060c001604052806000815260200160608152602001600073ffffffffffffffffffffffffffffffffffffffff168152602001600060068111156132e3577f4e487b7100000000000000000000000000000000000000000000000000000000600052602160045260246000fd5b81526020016132f06133ee565b81526020016000600181111561332f577f4e487b7100000000000000000000000000000000000000000000000000000000600052602160045260246000fd5b81525090565b604051806040016040528060608152602001606081525090565b6040518060a00160405280600081526020016000815260200160608152602001600060048111156133a9577f4e487b7100000000000000000000000000000000000000000000000000000000600052602160045260246000fd5b8152602001600060068111156133e8577f4e487b7100000000000000000000000000000000000000000000000000000000600052602160045260246000fd5b81525090565b6040518060600160405280600060ff168152602001600060ff168152602001600061ffff1681525090565b600061342c61342784614856565b614825565b90508281526020810184848401111561344457600080fd5b61344f848285614b36565b509392505050565b60008135905061346681614d3f565b92915050565b60008135905061347b81614d56565b92915050565b60008135905061349081614d66565b92915050565b600082601f8301126134a757600080fd5b81356134b7848260208601613419565b91505092915050565b6000606082840312156134d257600080fd5b6134dc6060614825565b905060006134ec8482850161355f565b60008301525060206135008482850161355f565b602083015250604061351484828501613520565b60408301525092915050565b60008135905061352f81614d76565b92915050565b60008135905061354481614d8d565b92915050565b60008135905061355981614da4565b92915050565b60008135905061356e81614dbb565b92915050565b60006020828403121561358657600080fd5b600061359484828501613457565b91505092915050565b60008060008060008061010087890312156135b757600080fd5b600087013567ffffffffffffffff8111156135d157600080fd5b6135dd89828a01613496565b96505060206135ee89828a01613457565b95505060406135ff89828a016134c0565b94505060a061361089828a01613481565b93505060c061362189828a01613535565b92505060e087013567ffffffffffffffff81111561363e57600080fd5b61364a89828a01613496565b9150509295509295509295565b6000806000806080858703121561366d57600080fd5b600085013567ffffffffffffffff81111561368757600080fd5b61369387828801613496565b94505060206136a48782880161355f565b93505060406136b58782880161355f565b92505060606136c687828801613520565b91505092959194509250565b6000606082840312156136e457600080fd5b60006136f2848285016134c0565b91505092915050565b60006020828403121561370d57600080fd5b600061371b84828501613520565b91505092915050565b60006020828403121561373657600080fd5b600061374484828501613535565b91505092915050565b6000806040838503121561376057600080fd5b600061376e85828601613535565b925050602061377f85828601613457565b9150509250929050565b60008060008060008060008060006101208a8c0312156137a857600080fd5b60006137b68c828d01613535565b99505060206137c78c828d01613457565b98505060406137d88c828d01613457565b97505060606137e98c828d01613457565b96505060806137fa8c828d01613457565b95505060a061380b8c828d01613535565b94505060c061381c8c828d01613535565b93505060e061382d8c828d01613535565b92505061010061383f8c828d01613535565b9150509295985092959850929598565b6000806040838503121561386257600080fd5b600061387085828601613535565b92505060206138818582860161346c565b9150509250929050565b6000806000606084860312156138a057600080fd5b60006138ae86828701613535565b935050602084013567ffffffffffffffff8111156138cb57600080fd5b6138d786828701613496565b925050604084013567ffffffffffffffff8111156138f457600080fd5b61390086828701613496565b9150509250925092565b6000806040838503121561391d57600080fd5b600061392b85828601613535565b925050602061393c85828601613535565b9150509250929050565b60006020828403121561395857600080fd5b60006139668482850161354a565b91505092915050565b6000806040838503121561398257600080fd5b60006139908582860161355f565b92505060206139a18582860161355f565b9150509250929050565b6139b481614a1d565b82525050565b6139c381614a1d565b82525050565b6139d281614a2f565b82525050565b6139e181614adc565b82525050565b6139f081614adc565b82525050565b6139ff81614aee565b82525050565b613a0e81614aee565b82525050565b613a1d81614b00565b82525050565b613a2c81614b00565b82525050565b613a3b81614b12565b82525050565b613a4a81614b12565b82525050565b6000613a5b82614886565b613a658185614891565b9350613a75818560208601614b45565b613a7e81614cde565b840191505092915050565b6000613a9482614886565b613a9e81856148a2565b9350613aae818560208601614b45565b613ab781614cde565b840191505092915050565b6000613acf6021836148a2565b91507f546869726420706c6163652077696e6e6572206e6f742072656769737465726560008301527f64000000000000000000000000000000000000000000000000000000000000006020830152604082019050919050565b6000613b356011836148a2565b91507f496e76616c6964204a75646f6b612049440000000000000000000000000000006000830152602082019050919050565b6000613b756018836148a2565b91507f4e6577206c6576656c206d7573742062652068696768657200000000000000006000830152602082019050919050565b6000613bb56022836148a2565b91507f466f7572746820706c6163652077696e6e6572206e6f7420726567697374657260008301527f65640000000000000000000000000000000000000000000000000000000000006020830152604082019050919050565b6000613c1b601e836148a2565b91507f4e6f207061727469636970616e747320696e20636f6d7065746974696f6e00006000830152602082019050919050565b6000613c5b6015836148a2565b91507f4a75646f6b6120646f6573206e6f7420657869737400000000000000000000006000830152602082019050919050565b6000613c9b6022836148a2565b91507f5365636f6e6420706c6163652077696e6e6572206e6f7420726567697374657260008301527f65640000000000000000000000000000000000000000000000000000000000006020830152604082019050919050565b6000613d016022836148a2565b91507f4f6e6c792061646d696e2063616e20706572666f726d2074686973206163746960008301527f6f6e0000000000000000000000000000000000000000000000000000000000006020830152604082019050919050565b6000613d676019836148a2565b91507f4a75646f6b6120616c72656164792072656769737465726564000000000000006000830152602082019050919050565b6000613da76000836148a2565b9150600082019050919050565b6000613dc16016836148a2565b91507f496e76616c69642077616c6c65742061646472657373000000000000000000006000830152602082019050919050565b6000613e016021836148a2565b91507f466972737420706c6163652077696e6e6572206e6f742072656769737465726560008301527f64000000000000000000000000000000000000000000000000000000000000006020830152604082019050919050565b6000613e676016836148a2565b91507f4a75646f6b6120646f6573206e6f742065786973742e000000000000000000006000830152602082019050919050565b6000613ea7601d836148a2565b91507f436f6d7065746974696f6e20616c726561647920636f6d706c657465640000006000830152602082019050919050565b6000613ee7600e836148a2565b91507f4e6f7420617574686f72697a65640000000000000000000000000000000000006000830152602082019050919050565b608082016000820151613f3060008501826139ab565b506020820151613f4360208501826139ab565b506040820151613f5660408501826139ab565b506060820151613f6960608501826139ab565b50505050565b606082016000820151613f8560008501826141ef565b506020820151613f9860208501826141ef565b506040820151613fab6040850182614195565b50505050565b606082016000820151613fc760008501826141ef565b506020820151613fda60208501826141ef565b506040820151613fed6040850182614195565b50505050565b600060608301600083015184820360008601526140108282614051565b9150506020830151848203602086015261402a82826140db565b91505060408301518482036040860152614044828261411f565b9150508091505092915050565b60006101008301600083015161406a60008601826141c2565b50602083015184820360208601526140828282613a50565b915050604083015161409760408601826139ab565b5060608301516140aa60608601826139f6565b5060808301516140bd6080860182613f6f565b5060a08301516140d060e0860182613a14565b508091505092915050565b600060408301600083015184820360008601526140f88282613a50565b915050602083015184820360208601526141128282613a50565b9150508091505092915050565b600060a08301600083015161413760008601826141c2565b50602083015161414a60208601826141c2565b50604083015184820360408601526141628282613a50565b915050606083015161417760608601826139d8565b50608083015161418a6080860182613a32565b508091505092915050565b61419e81614a87565b82525050565b6141ad81614a87565b82525050565b6141bc81614b24565b82525050565b6141cb81614ab5565b82525050565b6141da81614ab5565b82525050565b6141e981614abf565b82525050565b6141f881614acf565b82525050565b61420781614acf565b82525050565b600060208201905061422260008301846139ba565b92915050565b600060808201905061423d60008301876139ba565b61424a60208301866139ba565b61425760408301856139ba565b61426460608301846139ba565b95945050505050565b600060208201905061428260008301846139c9565b92915050565b600060208201905061429d60008301846139e7565b92915050565b60006020820190506142b86000830184613a05565b92915050565b60006060820190506142d36000830186613a05565b6142e06020830185613a05565b6142ed60408301846141d1565b949350505050565b600060208201905061430a6000830184613a41565b92915050565b60006101a082019050818103600083015261432b818e613a89565b905061433a602083018d6139ba565b614347604083018c613a05565b614354606083018b6141b3565b614361608083018a613a23565b81810360a083015261437281613d9a565b905081810360c083015261438581613d9a565b905061439460e08301896141d1565b6143a26101008301886141d1565b8181036101208301526143b58187613a89565b90506143c56101408301866139e7565b6143d3610160830185613a41565b6143e16101808301846141d1565b9c9b505050505050505050505050565b6000604082019050818103600083015261440b8185613a89565b9050818103602083015261441f8184613a89565b90509392505050565b600060408201905081810360008301526144428185613a89565b905061445160208301846141b3565b9392505050565b6000602082019050818103600083015261447181613ac2565b9050919050565b6000602082019050818103600083015261449181613b28565b9050919050565b600060208201905081810360008301526144b181613b68565b9050919050565b600060208201905081810360008301526144d181613ba8565b9050919050565b600060208201905081810360008301526144f181613c0e565b9050919050565b6000602082019050818103600083015261451181613c4e565b9050919050565b6000602082019050818103600083015261453181613c8e565b9050919050565b6000602082019050818103600083015261455181613cf4565b9050919050565b6000602082019050818103600083015261457181613d5a565b9050919050565b6000602082019050818103600083015261459181613db4565b9050919050565b600060208201905081810360008301526145b181613df4565b9050919050565b600060208201905081810360008301526145d181613e5a565b9050919050565b600060208201905081810360008301526145f181613e9a565b9050919050565b6000602082019050818103600083015261461181613eda565b9050919050565b600060208201905081810360008301526146328184613ff3565b905092915050565b600060208201905061464f60008301846141a4565b92915050565b600060608201905061466a60008301866141a4565b61467760208301856141fe565b61468460408301846141fe565b949350505050565b60006020820190506146a160008301846141d1565b92915050565b6000610100820190506146bd60008301896141d1565b81810360208301526146cf8188613a89565b90506146de60408301876139ba565b6146eb6060830186613a05565b6146f86080830185613fb1565b61470560e0830184613a23565b979650505050505050565b60006101408201905061472660008301886141d1565b81810360208301526147388187613a89565b90506147476040830186613fb1565b61475460a08301856139c9565b61476160c0830184613f1a565b9695505050505050565b600060808201905061478060008301876141d1565b61478d60208301866141d1565b61479a60408301856139e7565b6147a76060830184613a41565b95945050505050565b600060a0820190506147c560008301886141d1565b6147d260208301876141d1565b81810360408301526147e48186613a89565b90506147f360608301856139e7565b6148006080830184613a41565b9695505050505050565b600060208201905061481f60008301846141e0565b92915050565b6000604051905081810181811067ffffffffffffffff8211171561484c5761484b614caf565b5b8060405250919050565b600067ffffffffffffffff82111561487157614870614caf565b5b601f19601f8301169050602081019050919050565b600081519050919050565b600082825260208201905092915050565b600082825260208201905092915050565b60006148be82614a87565b91506148c983614a87565b92508261ffff038211156148e0576148df614bf3565b5b828201905092915050565b60006148f682614ab5565b915061490183614ab5565b9250827fffffffffffffffffffffffffffffffffffffffffffffffffffffffffffffffff0382111561493657614935614bf3565b5b828201905092915050565b600061494c82614ab5565b915061495783614ab5565b92508261496757614966614c22565b5b828204905092915050565b600061497d82614a87565b915061498883614a87565b92508161ffff04831182151516156149a3576149a2614bf3565b5b828202905092915050565b60006149b982614acf565b91506149c483614acf565b92508160ff04831182151516156149de576149dd614bf3565b5b828202905092915050565b60006149f482614ab5565b91506149ff83614ab5565b925082821015614a1257614a11614bf3565b5b828203905092915050565b6000614a2882614a95565b9050919050565b60008115159050919050565b6000819050614a4982614cef565b919050565b6000819050614a5c82614d03565b919050565b6000819050614a6f82614d17565b919050565b6000819050614a8282614d2b565b919050565b600061ffff82169050919050565b600073ffffffffffffffffffffffffffffffffffffffff82169050919050565b6000819050919050565b600063ffffffff82169050919050565b600060ff82169050919050565b6000614ae782614a3b565b9050919050565b6000614af982614a4e565b9050919050565b6000614b0b82614a61565b9050919050565b6000614b1d82614a74565b9050919050565b6000614b2f82614a87565b9050919050565b82818337600083830152505050565b60005b83811015614b63578082015181840152602081019050614b48565b83811115614b72576000848401525b50505050565b60006002820490506001821680614b9057607f821691505b60208210811415614ba457614ba3614c80565b5b50919050565b6000614bb582614ab5565b91507fffffffffffffffffffffffffffffffffffffffffffffffffffffffffffffffff821415614be857614be7614bf3565b5b600182019050919050565b7f4e487b7100000000000000000000000000000000000000000000000000000000600052601160045260246000fd5b7f4e487b7100000000000000000000000000000000000000000000000000000000600052601260045260246000fd5b7f4e487b7100000000000000000000000000000000000000000000000000000000600052602160045260246000fd5b7f4e487b7100000000000000000000000000000000000000000000000000000000600052602260045260246000fd5b7f4e487b7100000000000000000000000000000000000000000000000000000000600052604160045260246000fd5b6000601f19601f8301169050919050565b60058110614d0057614cff614c51565b5b50565b60078110614d1457614d13614c51565b5b50565b60028110614d2857614d27614c51565b5b50565b60078110614d3c57614d3b614c51565b5b50565b614d4881614a1d565b8114614d5357600080fd5b50565b60078110614d6357600080fd5b50565b60028110614d7357600080fd5b50565b614d7f81614a87565b8114614d8a57600080fd5b50565b614d9681614ab5565b8114614da157600080fd5b50565b614dad81614abf565b8114614db857600080fd5b50565b614dc481614acf565b8114614dcf57600080fd5b5056fea2646970667358221220b4e3943152af788c2945fcc5b343743531198f9406945887463d499ded03e16664736f6c63430008000033",
  "immutableReferences": {},
  "source": "// SPDX-License-Identifier: MIT\r\npragma solidity ^0.8.0;\r\n\r\ncontract JudoSystem {\r\n    enum BeltLevel { White, Yellow, Orange, Green, Blue, Brown, Black }\r\n    enum Gender { Male, Female }\r\n    enum AgeCategory { Juveniles, Cadets, Juniors, Seniors, Veterans }\r\n    enum WeightCategory { Under60, Under66, Under73, Under81, Under90, Under100, Over100 }\r\n\r\n    struct JudokaBasic {\r\n        uint256 id;\r\n        string name;\r\n        address walletAddress;\r\n        BeltLevel beltLevel;\r\n        Date birthDate;\r\n        Gender gender;\r\n    }\r\n\r\n    struct Date {\r\n        uint8 day;\r\n        uint8 month;\r\n        uint16 year;\r\n    }\r\n\r\n    struct JudokaContact {\r\n        string email;\r\n        string phoneNumber;\r\n    }\r\n\r\n    struct JudokaPhysical {\r\n        uint256 age;\r\n        uint256 weight;\r\n        string club;\r\n        AgeCategory ageCategory;\r\n        WeightCategory weightCategory;\r\n    }\r\n\r\n    struct FullJudokaInfo {\r\n        JudokaBasic basic;\r\n        JudokaContact contact;\r\n        JudokaPhysical physical;\r\n    }\r\n\r\n    struct CompetitionResult {\r\n        address firstPlace;\r\n        address secondPlace;\r\n        address thirdPlace;\r\n        address fourthPlace;\r\n    }\r\n\r\n    struct Competition {\r\n        uint256 id;\r\n        string name;\r\n        Date date;\r\n        address[] participants;\r\n        bool completed;\r\n        CompetitionResult results;\r\n    }\r\n\r\n    struct BeltLevelChange {\r\n        BeltLevel oldBeltLevel;\r\n        BeltLevel newBeltLevel;\r\n        uint256 timestamp;\r\n    }\r\n\r\n    uint256 public judokaCount;\r\n    uint256 public competitionCount;\r\n    mapping(address => uint256) public judokaIds;\r\n    mapping(uint256 => uint256) public judokaPoints;\r\n    mapping(uint256 => Competition) public competitions;\r\n    mapping(address => bool) public blackBeltAdmins;\r\n    mapping(uint256 => JudokaBasic) public judokasBasic;\r\n    mapping(uint256 => JudokaContact) public judokasContact;\r\n    mapping(uint256 => JudokaPhysical) public judokasPhysical;\r\n\r\n    address public admin;\r\n\r\n    event JudokaRegistered(uint256 indexed id, string name, address walletAddress, BeltLevel beltLevel, uint256 dateOfBirth, Gender gender, string email, string phoneNumber, uint256 age, uint256 weight, string club, AgeCategory ageCategory, WeightCategory weightCategory, uint256 timestamp);\r\n    event BeltLevelUpdated(uint256 indexed id, BeltLevel oldBeltLevel, BeltLevel newBeltLevel, uint256 timestamp);\r\n    event CompetitionCreated(uint256 indexed id, string name, uint256 date);\r\n    event ParticipantAdded(uint256 indexed competitionId, address participant);\r\n    event CompetitionResultRecorded(uint256 indexed competitionId, address firstPlace, address secondPlace, address thirdPlace, address fourthPlace);\r\n    event JudokaContactUpdated(uint256 indexed id, string email, string phoneNumber);\r\n    event DebugInfo(uint256 indexed id, uint256 age, uint256 weight, AgeCategory ageCategory, WeightCategory weightCategory);\r\n\r\n    \r\n    constructor() {\r\n        admin = msg.sender;\r\n        blackBeltAdmins[msg.sender] = true;\r\n    }\r\n\r\n    modifier onlyAdmin() {\r\n        require(isAdmin(msg.sender), \"Only admin can perform this action\");\r\n        _;\r\n    }\r\n\r\n    function isAdmin(address _address) public view returns (bool) {\r\n    return _address == admin || blackBeltAdmins[_address];\r\n    }\r\n\r\n    // Utility functions for date packing and unpacking\r\n    function packDateForJudoka(uint16 _birthYear) public pure returns (uint32) {\r\n        // Since only year is relevant for judokas, we simplify this function\r\n        return uint32(_birthYear);\r\n    }\r\n\r\n    function packDateForCompetition(uint8 _month, uint8 _day) public pure returns (uint16) {\r\n        // Correct packing for competition dates\r\n        return (uint16(_month) << 8) | uint16(_day);\r\n    }\r\n\r\n    function getAgeCategory(uint256 _age) public pure returns (AgeCategory) {\r\n        if (_age >= 13 && _age <= 14) {\r\n            return AgeCategory.Juveniles;\r\n        } else if (_age >= 15 && _age <= 17) {\r\n            return AgeCategory.Cadets;\r\n        } else if (_age >= 18 && _age <= 20) {\r\n            return AgeCategory.Juniors;\r\n        } else if (_age >= 21 && _age <= 30) {\r\n            return AgeCategory.Seniors;\r\n        } else {\r\n            return AgeCategory.Veterans;\r\n        }\r\n    }\r\n\r\n    function getWeightCategory(uint256 _weight) public pure returns (WeightCategory) {\r\n        if (_weight < 60) {\r\n            return WeightCategory.Under60;\r\n        } else if (_weight < 66) {\r\n            return WeightCategory.Under66;\r\n        } else if (_weight < 73) {\r\n            return WeightCategory.Under73;\r\n        } else if (_weight < 81) {\r\n            return WeightCategory.Under81;\r\n        } else if (_weight < 90) {\r\n            return WeightCategory.Under90;\r\n        } else if (_weight < 100) {\r\n            return WeightCategory.Under100;\r\n        } else {\r\n            return WeightCategory.Over100;\r\n        }\r\n    }\r\n\r\n    // Example getter functions in your Solidity contract\r\n\r\n    function getAgeCategoryByAge(uint256 _age) public view returns (AgeCategory) {\r\n        return getAgeCategory(_age);\r\n    }\r\n\r\n    function getWeightCategoryByWeight(uint256 _weight) public view returns (WeightCategory) {\r\n        return getWeightCategory(_weight);\r\n    }\r\n\r\n\r\n    function calculateAge(Date memory _birthDate) public view returns (uint256) {\r\n    uint256 currentYear = (block.timestamp / 365 days) + 1970; // Convert from Unix epoch\r\n    return currentYear > _birthDate.year ? currentYear - _birthDate.year : 0;\r\n    }\r\n\r\n    // Function to unpack date from uint32 format\r\n    function unpackDate(uint32 _packedDate) public pure returns (uint16 year, uint8 month, uint8 day) {\r\n        year = uint16(_packedDate >> 16);\r\n        month = uint8(_packedDate >> 8 & 0xFF);\r\n        day = uint8(_packedDate & 0xFF);\r\n    }\r\n\r\n\r\n// Correct usage in registerJudoka (and similar adjustment in other relevant functions)\r\n    function registerJudoka(\r\n        string memory _name, \r\n        address _walletAddress, \r\n        Date memory _birthDate,\r\n        Gender _gender,\r\n        uint256 _weight,\r\n        string memory _club\r\n    ) public {\r\n        require(_walletAddress != address(0), \"Invalid wallet address\");\r\n        require(judokaIds[_walletAddress] == 0, \"Judoka already registered\");\r\n\r\n        uint256 age = calculateAge(_birthDate);\r\n\r\n        emit DebugInfo(judokaCount + 1, age, _weight, getAgeCategory(age), getWeightCategory(_weight));\r\n\r\n\r\n        judokaCount++;\r\n        judokasBasic[judokaCount] = JudokaBasic({\r\n            id: judokaCount,\r\n            name: _name,\r\n            walletAddress: _walletAddress,\r\n            beltLevel: BeltLevel.White,\r\n            birthDate: _birthDate,\r\n            gender: _gender\r\n        });\r\n\r\n        judokasContact[judokaCount] = JudokaContact({\r\n            email: '',\r\n            phoneNumber: ''\r\n        });\r\n\r\n        judokasPhysical[judokaCount] = JudokaPhysical({\r\n            age: age,\r\n            weight: _weight,\r\n            club: _club,\r\n            ageCategory: getAgeCategory(age),\r\n            weightCategory: getWeightCategory(_weight)\r\n        });\r\n\r\n        judokaIds[_walletAddress] = judokaCount;\r\n\r\n        emit JudokaRegistered(\r\n            judokaCount, _name, _walletAddress, BeltLevel.White, _birthDate.year, _gender, '', '', age, _weight, _club, getAgeCategory(age), getWeightCategory(_weight), block.timestamp\r\n        );\r\n    }\r\n\r\n\r\nfunction getJudokaDOB(uint256 _id) public view returns (uint16 year, uint8 month, uint8 day) {\r\n    Date storage birthDate = judokasBasic[_id].birthDate;\r\n    year = birthDate.year;\r\n    month = birthDate.month;\r\n    day = birthDate.day;\r\n}\r\n\r\n\r\nfunction updateJudokaContactDetails(\r\n    uint256 _id,\r\n    string memory _email,\r\n    string memory _phoneNumber\r\n) public {\r\n    require(_id > 0 && _id <= judokaCount, \"Judoka does not exist\");\r\n    require(msg.sender == judokasBasic[_id].walletAddress || isAdmin(msg.sender), \"Not authorized\");\r\n\r\n    judokasContact[_id] = JudokaContact({\r\n        email: _email,\r\n        phoneNumber: _phoneNumber\r\n    });\r\n\r\n    emit JudokaContactUpdated(_id, _email, _phoneNumber);\r\n    }\r\n\r\n    function getJudokaInfo(uint256 _id) public view returns (FullJudokaInfo memory) {\r\n        require(_id > 0 && _id <= judokaCount, \"Judoka does not exist.\");\r\n        return FullJudokaInfo({\r\n            basic: judokasBasic[_id],\r\n            contact: judokasContact[_id],\r\n            physical: judokasPhysical[_id]\r\n        });\r\n    }\r\n\r\n    function getBeltLevel(uint256 _id) public view returns (BeltLevel) {\r\n        require(_id > 0 && _id <= judokaCount, \"Judoka does not exist.\");\r\n        return judokasBasic[_id].beltLevel;\r\n    }\r\n\r\n    function promoteJudoka(uint256 _id, BeltLevel _newBeltLevel) public onlyAdmin {\r\n        require(_id > 0 && _id <= judokaCount, \"Judoka does not exist.\");\r\n        require(_newBeltLevel > judokasBasic[_id].beltLevel, \"New level must be higher\");\r\n\r\n        BeltLevel oldBeltLevel = judokasBasic[_id].beltLevel;\r\n        judokasBasic[_id].beltLevel = _newBeltLevel;\r\n\r\n        if (_newBeltLevel == BeltLevel.Black) {\r\n            blackBeltAdmins[judokasBasic[_id].walletAddress] = true;\r\n        }\r\n\r\n        emit BeltLevelUpdated(_id, oldBeltLevel, _newBeltLevel, block.timestamp);\r\n    }\r\n\r\n    function isBlackBelt(address _address) public view returns (bool) {\r\n        return judokasBasic[judokaIds[_address]].beltLevel == BeltLevel.Black;\r\n    }\r\n\r\n    function isAuthorized(uint256 _id, address _sender) public view returns (bool) {\r\n        return _sender == judokasBasic[_id].walletAddress || _sender == admin;\r\n    }\r\n\r\n    function updateJudokaPoints(uint256 _id, uint256 _points) public onlyAdmin {\r\n        require(_id > 0 && _id <= judokaCount, \"Invalid Judoka ID\");\r\n        judokaPoints[_id] += _points;\r\n    }\r\n\r\n// Function to create a competition correctly handling the packed date\r\nfunction createCompetition(\r\n    string memory _name,\r\n    uint8 _day,\r\n    uint8 _month,\r\n    uint16 _year // Assuming you want to store the full date\r\n) public onlyAdmin {\r\n    // Create the date structure for the competition\r\n        Date memory competitionDate = Date({\r\n        day: _day,\r\n        month: _month,\r\n        year: _year\r\n    });\r\n\r\n    // Default results structure\r\n    CompetitionResult memory defaultResults = CompetitionResult({\r\n        firstPlace: address(0),\r\n        secondPlace: address(0),\r\n        thirdPlace: address(0),\r\n        fourthPlace: address(0)\r\n    });\r\n\r\n    // Increment the competition counter and set up the new competition\r\n    competitionCount++;\r\n    competitions[competitionCount] = Competition({\r\n        id: competitionCount,\r\n        name: _name,\r\n        date: competitionDate,\r\n        participants: new address[](0) ,\r\n        completed: false,\r\n        results: defaultResults\r\n    });\r\n\r\n    // Emit the competition creation event\r\n    emit CompetitionCreated(competitionCount, _name, _year * 10000 + _month * 100 + _day); // Example packed date format for the event\r\n    }\r\n\r\n\r\n    function addParticipant(uint256 _competitionId, address _participant) public onlyAdmin {\r\n        require(!competitions[_competitionId].completed, \"Competition already completed\");\r\n        competitions[_competitionId].participants.push(_participant);\r\n        emit ParticipantAdded(_competitionId, _participant);\r\n    }\r\n\r\n    function recordCompetitionResult(\r\n        uint256 _competitionId, \r\n        address _firstPlace, \r\n        address _secondPlace, \r\n        address _thirdPlace, \r\n        address _fourthPlace,\r\n        uint256 _firstPlacePoints,\r\n        uint256 _secondPlacePoints,\r\n        uint256 _thirdPlacePoints,\r\n        uint256 _fourthPlacePoints\r\n    ) public onlyAdmin {\r\n        require(!competitions[_competitionId].completed, \"Competition already completed\");\r\n        require(competitions[_competitionId].participants.length > 0, \"No participants in competition\");\r\n\r\n        require(judokaIds[_firstPlace] != 0, \"First place winner not registered\");\r\n        require(judokaIds[_secondPlace] != 0, \"Second place winner not registered\");\r\n        require(judokaIds[_thirdPlace] != 0, \"Third place winner not registered\");\r\n        require(judokaIds[_fourthPlace] != 0, \"Fourth place winner not registered\");\r\n\r\n        competitions[_competitionId].completed = true;\r\n        competitions[_competitionId].results = CompetitionResult({\r\n            firstPlace: _firstPlace,\r\n            secondPlace: _secondPlace,\r\n            thirdPlace: _thirdPlace,\r\n            fourthPlace: _fourthPlace\r\n        });\r\n\r\n        if (_firstPlacePoints > 0) {\r\n            updateJudokaPoints(judokaIds[_firstPlace], _firstPlacePoints);\r\n        }\r\n        if (_secondPlacePoints > 0) {\r\n            updateJudokaPoints(judokaIds[_secondPlace], _secondPlacePoints);\r\n        }\r\n        if (_thirdPlacePoints > 0) {\r\n            updateJudokaPoints(judokaIds[_thirdPlace], _thirdPlacePoints);\r\n        }\r\n        if (_fourthPlacePoints > 0) {\r\n            updateJudokaPoints(judokaIds[_fourthPlace], _fourthPlacePoints);\r\n        }\r\n\r\n        emit CompetitionResultRecorded(_competitionId, _firstPlace, _secondPlace, _thirdPlace, _fourthPlace);\r\n    }\r\n}\r\n",
  "sourcePath": "C:\\Users\\marti\\Documents\\projects\\blockchain-judo\\contracts\\JudoSystem.sol",
  "compiler": {
    "name": "solc",
    "version": "0.8.0+commit.c7dfd78e.Emscripten.clang"
  },
  "schemaVersion": "3.4.16",
  "updatedAt": "2024-05-10T07:53:32.484Z",
  "networkType": "ethereum",
  "devdoc": {
    "kind": "dev",
    "methods": {},
    "version": 1
  },
  "userdoc": {
    "kind": "user",
    "methods": {},
    "version": 1
  }
}