{
  "contractName": "JudoSystem",
  "abi": [
    {
      "inputs": [],
      "stateMutability": "nonpayable",
      "type": "constructor"
    },
    {
      "anonymous": false,
      "inputs": [
        {
          "indexed": true,
          "internalType": "uint256",
          "name": "id",
          "type": "uint256"
        },
        {
          "indexed": false,
          "internalType": "enum JudoSystem.BeltLevel",
          "name": "oldBeltLevel",
          "type": "uint8"
        },
        {
          "indexed": false,
          "internalType": "enum JudoSystem.BeltLevel",
          "name": "newBeltLevel",
          "type": "uint8"
        },
        {
          "indexed": false,
          "internalType": "uint256",
          "name": "timestamp",
          "type": "uint256"
        }
      ],
      "name": "BeltLevelUpdated",
      "type": "event"
    },
    {
      "anonymous": false,
      "inputs": [
        {
          "indexed": true,
          "internalType": "uint256",
          "name": "id",
          "type": "uint256"
        },
        {
          "indexed": false,
          "internalType": "string",
          "name": "name",
          "type": "string"
        },
        {
          "indexed": false,
          "internalType": "uint256",
          "name": "date",
          "type": "uint256"
        }
      ],
      "name": "CompetitionCreated",
      "type": "event"
    },
    {
      "anonymous": false,
      "inputs": [
        {
          "indexed": true,
          "internalType": "uint256",
          "name": "competitionId",
          "type": "uint256"
        },
        {
          "indexed": false,
          "internalType": "address",
          "name": "firstPlace",
          "type": "address"
        },
        {
          "indexed": false,
          "internalType": "address",
          "name": "secondPlace",
          "type": "address"
        },
        {
          "indexed": false,
          "internalType": "address",
          "name": "thirdPlace",
          "type": "address"
        },
        {
          "indexed": false,
          "internalType": "address",
          "name": "fourthPlace",
          "type": "address"
        }
      ],
      "name": "CompetitionResultRecorded",
      "type": "event"
    },
    {
      "anonymous": false,
      "inputs": [
        {
          "indexed": true,
          "internalType": "uint256",
          "name": "id",
          "type": "uint256"
        },
        {
          "indexed": false,
          "internalType": "uint256",
          "name": "age",
          "type": "uint256"
        },
        {
          "indexed": false,
          "internalType": "uint256",
          "name": "weight",
          "type": "uint256"
        },
        {
          "indexed": false,
          "internalType": "enum JudoSystem.AgeCategory",
          "name": "ageCategory",
          "type": "uint8"
        },
        {
          "indexed": false,
          "internalType": "enum JudoSystem.WeightCategory",
          "name": "weightCategory",
          "type": "uint8"
        }
      ],
      "name": "DebugInfo",
      "type": "event"
    },
    {
      "anonymous": false,
      "inputs": [
        {
          "indexed": true,
          "internalType": "uint256",
          "name": "id",
          "type": "uint256"
        },
        {
          "indexed": false,
          "internalType": "string",
          "name": "email",
          "type": "string"
        },
        {
          "indexed": false,
          "internalType": "string",
          "name": "phoneNumber",
          "type": "string"
        }
      ],
      "name": "JudokaContactUpdated",
      "type": "event"
    },
    {
      "anonymous": false,
      "inputs": [
        {
          "indexed": true,
          "internalType": "uint256",
          "name": "id",
          "type": "uint256"
        },
        {
          "indexed": false,
          "internalType": "string",
          "name": "name",
          "type": "string"
        },
        {
          "indexed": false,
          "internalType": "address",
          "name": "walletAddress",
          "type": "address"
        },
        {
          "indexed": false,
          "internalType": "enum JudoSystem.BeltLevel",
          "name": "beltLevel",
          "type": "uint8"
        },
        {
          "indexed": false,
          "internalType": "uint256",
          "name": "dateOfBirth",
          "type": "uint256"
        },
        {
          "indexed": false,
          "internalType": "enum JudoSystem.Gender",
          "name": "gender",
          "type": "uint8"
        },
        {
          "indexed": false,
          "internalType": "string",
          "name": "email",
          "type": "string"
        },
        {
          "indexed": false,
          "internalType": "string",
          "name": "phoneNumber",
          "type": "string"
        },
        {
          "indexed": false,
          "internalType": "uint256",
          "name": "age",
          "type": "uint256"
        },
        {
          "indexed": false,
          "internalType": "uint256",
          "name": "weight",
          "type": "uint256"
        },
        {
          "indexed": false,
          "internalType": "string",
          "name": "club",
          "type": "string"
        },
        {
          "indexed": false,
          "internalType": "enum JudoSystem.AgeCategory",
          "name": "ageCategory",
          "type": "uint8"
        },
        {
          "indexed": false,
          "internalType": "enum JudoSystem.WeightCategory",
          "name": "weightCategory",
          "type": "uint8"
        },
        {
          "indexed": false,
          "internalType": "uint256",
          "name": "timestamp",
          "type": "uint256"
        }
      ],
      "name": "JudokaRegistered",
      "type": "event"
    },
    {
      "anonymous": false,
      "inputs": [
        {
          "indexed": true,
          "internalType": "uint256",
          "name": "competitionId",
          "type": "uint256"
        },
        {
          "indexed": false,
          "internalType": "address",
          "name": "participant",
          "type": "address"
        }
      ],
      "name": "ParticipantAdded",
      "type": "event"
    },
    {
      "inputs": [],
      "name": "admin",
      "outputs": [
        {
          "internalType": "address",
          "name": "",
          "type": "address"
        }
      ],
      "stateMutability": "view",
      "type": "function",
      "constant": true
    },
    {
      "inputs": [
        {
          "internalType": "address",
          "name": "",
          "type": "address"
        }
      ],
      "name": "blackBeltAdmins",
      "outputs": [
        {
          "internalType": "bool",
          "name": "",
          "type": "bool"
        }
      ],
      "stateMutability": "view",
      "type": "function",
      "constant": true
    },
    {
      "inputs": [],
      "name": "competitionCount",
      "outputs": [
        {
          "internalType": "uint256",
          "name": "",
          "type": "uint256"
        }
      ],
      "stateMutability": "view",
      "type": "function",
      "constant": true
    },
    {
      "inputs": [
        {
          "internalType": "uint256",
          "name": "",
          "type": "uint256"
        }
      ],
      "name": "competitions",
      "outputs": [
        {
          "internalType": "uint256",
          "name": "id",
          "type": "uint256"
        },
        {
          "internalType": "string",
          "name": "name",
          "type": "string"
        },
        {
          "components": [
            {
              "internalType": "uint8",
              "name": "day",
              "type": "uint8"
            },
            {
              "internalType": "uint8",
              "name": "month",
              "type": "uint8"
            },
            {
              "internalType": "uint16",
              "name": "year",
              "type": "uint16"
            }
          ],
          "internalType": "struct JudoSystem.Date",
          "name": "date",
          "type": "tuple"
        },
        {
          "internalType": "bool",
          "name": "completed",
          "type": "bool"
        },
        {
          "components": [
            {
              "internalType": "address",
              "name": "firstPlace",
              "type": "address"
            },
            {
              "internalType": "address",
              "name": "secondPlace",
              "type": "address"
            },
            {
              "internalType": "address",
              "name": "thirdPlace",
              "type": "address"
            },
            {
              "internalType": "address",
              "name": "fourthPlace",
              "type": "address"
            }
          ],
          "internalType": "struct JudoSystem.CompetitionResult",
          "name": "results",
          "type": "tuple"
        }
      ],
      "stateMutability": "view",
      "type": "function",
      "constant": true
    },
    {
      "inputs": [],
      "name": "judokaCount",
      "outputs": [
        {
          "internalType": "uint256",
          "name": "",
          "type": "uint256"
        }
      ],
      "stateMutability": "view",
      "type": "function",
      "constant": true
    },
    {
      "inputs": [
        {
          "internalType": "address",
          "name": "",
          "type": "address"
        }
      ],
      "name": "judokaIds",
      "outputs": [
        {
          "internalType": "uint256",
          "name": "",
          "type": "uint256"
        }
      ],
      "stateMutability": "view",
      "type": "function",
      "constant": true
    },
    {
      "inputs": [
        {
          "internalType": "uint256",
          "name": "",
          "type": "uint256"
        }
      ],
      "name": "judokaPoints",
      "outputs": [
        {
          "internalType": "uint256",
          "name": "",
          "type": "uint256"
        }
      ],
      "stateMutability": "view",
      "type": "function",
      "constant": true
    },
    {
      "inputs": [
        {
          "internalType": "uint256",
          "name": "",
          "type": "uint256"
        }
      ],
      "name": "judokasBasic",
      "outputs": [
        {
          "internalType": "uint256",
          "name": "id",
          "type": "uint256"
        },
        {
          "internalType": "string",
          "name": "name",
          "type": "string"
        },
        {
          "internalType": "address",
          "name": "walletAddress",
          "type": "address"
        },
        {
          "internalType": "enum JudoSystem.BeltLevel",
          "name": "beltLevel",
          "type": "uint8"
        },
        {
          "components": [
            {
              "internalType": "uint8",
              "name": "day",
              "type": "uint8"
            },
            {
              "internalType": "uint8",
              "name": "month",
              "type": "uint8"
            },
            {
              "internalType": "uint16",
              "name": "year",
              "type": "uint16"
            }
          ],
          "internalType": "struct JudoSystem.Date",
          "name": "birthDate",
          "type": "tuple"
        },
        {
          "internalType": "enum JudoSystem.Gender",
          "name": "gender",
          "type": "uint8"
        }
      ],
      "stateMutability": "view",
      "type": "function",
      "constant": true
    },
    {
      "inputs": [
        {
          "internalType": "uint256",
          "name": "",
          "type": "uint256"
        }
      ],
      "name": "judokasContact",
      "outputs": [
        {
          "internalType": "string",
          "name": "email",
          "type": "string"
        },
        {
          "internalType": "string",
          "name": "phoneNumber",
          "type": "string"
        }
      ],
      "stateMutability": "view",
      "type": "function",
      "constant": true
    },
    {
      "inputs": [
        {
          "internalType": "uint256",
          "name": "",
          "type": "uint256"
        }
      ],
      "name": "judokasPhysical",
      "outputs": [
        {
          "internalType": "uint256",
          "name": "age",
          "type": "uint256"
        },
        {
          "internalType": "uint256",
          "name": "weight",
          "type": "uint256"
        },
        {
          "internalType": "string",
          "name": "club",
          "type": "string"
        },
        {
          "internalType": "enum JudoSystem.AgeCategory",
          "name": "ageCategory",
          "type": "uint8"
        },
        {
          "internalType": "enum JudoSystem.WeightCategory",
          "name": "weightCategory",
          "type": "uint8"
        }
      ],
      "stateMutability": "view",
      "type": "function",
      "constant": true
    },
    {
      "inputs": [
        {
          "internalType": "address",
          "name": "_address",
          "type": "address"
        }
      ],
      "name": "isAdmin",
      "outputs": [
        {
          "internalType": "bool",
          "name": "",
          "type": "bool"
        }
      ],
      "stateMutability": "view",
      "type": "function",
      "constant": true
    },
    {
      "inputs": [
        {
          "internalType": "uint16",
          "name": "_birthYear",
          "type": "uint16"
        }
      ],
      "name": "packDateForJudoka",
      "outputs": [
        {
          "internalType": "uint32",
          "name": "",
          "type": "uint32"
        }
      ],
      "stateMutability": "pure",
      "type": "function",
      "constant": true
    },
    {
      "inputs": [
        {
          "internalType": "uint8",
          "name": "_month",
          "type": "uint8"
        },
        {
          "internalType": "uint8",
          "name": "_day",
          "type": "uint8"
        }
      ],
      "name": "packDateForCompetition",
      "outputs": [
        {
          "internalType": "uint16",
          "name": "",
          "type": "uint16"
        }
      ],
      "stateMutability": "pure",
      "type": "function",
      "constant": true
    },
    {
      "inputs": [
        {
          "internalType": "uint256",
          "name": "_age",
          "type": "uint256"
        }
      ],
      "name": "getAgeCategory",
      "outputs": [
        {
          "internalType": "enum JudoSystem.AgeCategory",
          "name": "",
          "type": "uint8"
        }
      ],
      "stateMutability": "pure",
      "type": "function",
      "constant": true
    },
    {
      "inputs": [
        {
          "internalType": "uint256",
          "name": "_weight",
          "type": "uint256"
        }
      ],
      "name": "getWeightCategory",
      "outputs": [
        {
          "internalType": "enum JudoSystem.WeightCategory",
          "name": "",
          "type": "uint8"
        }
      ],
      "stateMutability": "pure",
      "type": "function",
      "constant": true
    },
    {
      "inputs": [
        {
          "internalType": "uint256",
          "name": "_age",
          "type": "uint256"
        }
      ],
      "name": "getAgeCategoryByAge",
      "outputs": [
        {
          "internalType": "enum JudoSystem.AgeCategory",
          "name": "",
          "type": "uint8"
        }
      ],
      "stateMutability": "view",
      "type": "function",
      "constant": true
    },
    {
      "inputs": [
        {
          "internalType": "uint256",
          "name": "_weight",
          "type": "uint256"
        }
      ],
      "name": "getWeightCategoryByWeight",
      "outputs": [
        {
          "internalType": "enum JudoSystem.WeightCategory",
          "name": "",
          "type": "uint8"
        }
      ],
      "stateMutability": "view",
      "type": "function",
      "constant": true
    },
    {
      "inputs": [
        {
          "components": [
            {
              "internalType": "uint8",
              "name": "day",
              "type": "uint8"
            },
            {
              "internalType": "uint8",
              "name": "month",
              "type": "uint8"
            },
            {
              "internalType": "uint16",
              "name": "year",
              "type": "uint16"
            }
          ],
          "internalType": "struct JudoSystem.Date",
          "name": "_birthDate",
          "type": "tuple"
        }
      ],
      "name": "calculateAge",
      "outputs": [
        {
          "internalType": "uint256",
          "name": "",
          "type": "uint256"
        }
      ],
      "stateMutability": "view",
      "type": "function",
      "constant": true
    },
    {
      "inputs": [
        {
          "internalType": "uint32",
          "name": "_packedDate",
          "type": "uint32"
        }
      ],
      "name": "unpackDate",
      "outputs": [
        {
          "internalType": "uint16",
          "name": "year",
          "type": "uint16"
        },
        {
          "internalType": "uint8",
          "name": "month",
          "type": "uint8"
        },
        {
          "internalType": "uint8",
          "name": "day",
          "type": "uint8"
        }
      ],
      "stateMutability": "pure",
      "type": "function",
      "constant": true
    },
    {
      "inputs": [
        {
          "internalType": "string",
          "name": "_name",
          "type": "string"
        },
        {
          "internalType": "address",
          "name": "_walletAddress",
          "type": "address"
        },
        {
          "components": [
            {
              "internalType": "uint8",
              "name": "day",
              "type": "uint8"
            },
            {
              "internalType": "uint8",
              "name": "month",
              "type": "uint8"
            },
            {
              "internalType": "uint16",
              "name": "year",
              "type": "uint16"
            }
          ],
          "internalType": "struct JudoSystem.Date",
          "name": "_birthDate",
          "type": "tuple"
        },
        {
          "internalType": "enum JudoSystem.Gender",
          "name": "_gender",
          "type": "uint8"
        },
        {
          "internalType": "uint256",
          "name": "_weight",
          "type": "uint256"
        },
        {
          "internalType": "string",
          "name": "_club",
          "type": "string"
        }
      ],
      "name": "registerJudoka",
      "outputs": [],
      "stateMutability": "nonpayable",
      "type": "function"
    },
    {
      "inputs": [
        {
          "internalType": "uint256",
          "name": "_id",
          "type": "uint256"
        }
      ],
      "name": "getJudokaDOB",
      "outputs": [
        {
          "internalType": "uint16",
          "name": "year",
          "type": "uint16"
        },
        {
          "internalType": "uint8",
          "name": "month",
          "type": "uint8"
        },
        {
          "internalType": "uint8",
          "name": "day",
          "type": "uint8"
        }
      ],
      "stateMutability": "view",
      "type": "function",
      "constant": true
    },
    {
      "inputs": [
        {
          "internalType": "uint256",
          "name": "_id",
          "type": "uint256"
        },
        {
          "internalType": "string",
          "name": "_email",
          "type": "string"
        },
        {
          "internalType": "string",
          "name": "_phoneNumber",
          "type": "string"
        }
      ],
      "name": "updateJudokaContactDetails",
      "outputs": [],
      "stateMutability": "nonpayable",
      "type": "function"
    },
    {
      "inputs": [
        {
          "internalType": "uint256",
          "name": "_id",
          "type": "uint256"
        }
      ],
      "name": "getJudokaInfo",
      "outputs": [
        {
          "components": [
            {
              "components": [
                {
                  "internalType": "uint256",
                  "name": "id",
                  "type": "uint256"
                },
                {
                  "internalType": "string",
                  "name": "name",
                  "type": "string"
                },
                {
                  "internalType": "address",
                  "name": "walletAddress",
                  "type": "address"
                },
                {
                  "internalType": "enum JudoSystem.BeltLevel",
                  "name": "beltLevel",
                  "type": "uint8"
                },
                {
                  "components": [
                    {
                      "internalType": "uint8",
                      "name": "day",
                      "type": "uint8"
                    },
                    {
                      "internalType": "uint8",
                      "name": "month",
                      "type": "uint8"
                    },
                    {
                      "internalType": "uint16",
                      "name": "year",
                      "type": "uint16"
                    }
                  ],
                  "internalType": "struct JudoSystem.Date",
                  "name": "birthDate",
                  "type": "tuple"
                },
                {
                  "internalType": "enum JudoSystem.Gender",
                  "name": "gender",
                  "type": "uint8"
                }
              ],
              "internalType": "struct JudoSystem.JudokaBasic",
              "name": "basic",
              "type": "tuple"
            },
            {
              "components": [
                {
                  "internalType": "string",
                  "name": "email",
                  "type": "string"
                },
                {
                  "internalType": "string",
                  "name": "phoneNumber",
                  "type": "string"
                }
              ],
              "internalType": "struct JudoSystem.JudokaContact",
              "name": "contact",
              "type": "tuple"
            },
            {
              "components": [
                {
                  "internalType": "uint256",
                  "name": "age",
                  "type": "uint256"
                },
                {
                  "internalType": "uint256",
                  "name": "weight",
                  "type": "uint256"
                },
                {
                  "internalType": "string",
                  "name": "club",
                  "type": "string"
                },
                {
                  "internalType": "enum JudoSystem.AgeCategory",
                  "name": "ageCategory",
                  "type": "uint8"
                },
                {
                  "internalType": "enum JudoSystem.WeightCategory",
                  "name": "weightCategory",
                  "type": "uint8"
                }
              ],
              "internalType": "struct JudoSystem.JudokaPhysical",
              "name": "physical",
              "type": "tuple"
            }
          ],
          "internalType": "struct JudoSystem.FullJudokaInfo",
          "name": "",
          "type": "tuple"
        }
      ],
      "stateMutability": "view",
      "type": "function",
      "constant": true
    },
    {
      "inputs": [
        {
          "internalType": "uint256",
          "name": "_id",
          "type": "uint256"
        }
      ],
      "name": "getBeltLevel",
      "outputs": [
        {
          "internalType": "enum JudoSystem.BeltLevel",
          "name": "",
          "type": "uint8"
        }
      ],
      "stateMutability": "view",
      "type": "function",
      "constant": true
    },
    {
      "inputs": [
        {
          "internalType": "uint256",
          "name": "_id",
          "type": "uint256"
        },
        {
          "internalType": "enum JudoSystem.BeltLevel",
          "name": "_newBeltLevel",
          "type": "uint8"
        }
      ],
      "name": "promoteJudoka",
      "outputs": [],
      "stateMutability": "nonpayable",
      "type": "function"
    },
    {
      "inputs": [
        {
          "internalType": "address",
          "name": "_address",
          "type": "address"
        }
      ],
      "name": "isBlackBelt",
      "outputs": [
        {
          "internalType": "bool",
          "name": "",
          "type": "bool"
        }
      ],
      "stateMutability": "view",
      "type": "function",
      "constant": true
    },
    {
      "inputs": [
        {
          "internalType": "uint256",
          "name": "_id",
          "type": "uint256"
        },
        {
          "internalType": "address",
          "name": "_sender",
          "type": "address"
        }
      ],
      "name": "isAuthorized",
      "outputs": [
        {
          "internalType": "bool",
          "name": "",
          "type": "bool"
        }
      ],
      "stateMutability": "view",
      "type": "function",
      "constant": true
    },
    {
      "inputs": [
        {
          "internalType": "uint256",
          "name": "_id",
          "type": "uint256"
        },
        {
          "internalType": "uint256",
          "name": "_points",
          "type": "uint256"
        }
      ],
      "name": "updateJudokaPoints",
      "outputs": [],
      "stateMutability": "nonpayable",
      "type": "function"
    },
    {
      "inputs": [
        {
          "internalType": "address",
          "name": "_walletAddress",
          "type": "address"
        }
      ],
      "name": "getJudokaIdByWallet",
      "outputs": [
        {
          "internalType": "uint256",
          "name": "",
          "type": "uint256"
        }
      ],
      "stateMutability": "view",
      "type": "function",
      "constant": true
    },
    {
      "inputs": [
        {
          "internalType": "string",
          "name": "_name",
          "type": "string"
        },
        {
          "internalType": "uint8",
          "name": "_day",
          "type": "uint8"
        },
        {
          "internalType": "uint8",
          "name": "_month",
          "type": "uint8"
        },
        {
          "internalType": "uint16",
          "name": "_year",
          "type": "uint16"
        }
      ],
      "name": "createCompetition",
      "outputs": [],
      "stateMutability": "nonpayable",
      "type": "function"
    },
    {
      "inputs": [
        {
          "internalType": "uint256",
          "name": "_competitionId",
          "type": "uint256"
        },
        {
          "internalType": "address",
          "name": "_participant",
          "type": "address"
        }
      ],
      "name": "addParticipant",
      "outputs": [],
      "stateMutability": "nonpayable",
      "type": "function"
    },
    {
      "inputs": [
        {
          "internalType": "uint256",
          "name": "_competitionId",
          "type": "uint256"
        },
        {
          "internalType": "address",
          "name": "_firstPlace",
          "type": "address"
        },
        {
          "internalType": "address",
          "name": "_secondPlace",
          "type": "address"
        },
        {
          "internalType": "address",
          "name": "_thirdPlace",
          "type": "address"
        },
        {
          "internalType": "address",
          "name": "_fourthPlace",
          "type": "address"
        },
        {
          "internalType": "uint256",
          "name": "_firstPlacePoints",
          "type": "uint256"
        },
        {
          "internalType": "uint256",
          "name": "_secondPlacePoints",
          "type": "uint256"
        },
        {
          "internalType": "uint256",
          "name": "_thirdPlacePoints",
          "type": "uint256"
        },
        {
          "internalType": "uint256",
          "name": "_fourthPlacePoints",
          "type": "uint256"
        }
      ],
      "name": "recordCompetitionResult",
      "outputs": [],
      "stateMutability": "nonpayable",
      "type": "function"
    }
  ],
  "bytecode": "0x608060405234801561001057600080fd5b5033600960006101000a81548173ffffffffffffffffffffffffffffffffffffffff021916908373ffffffffffffffffffffffffffffffffffffffff1602179055506001600560003373ffffffffffffffffffffffffffffffffffffffff1673ffffffffffffffffffffffffffffffffffffffff16815260200190815260200160002060006101000a81548160ff021916908315150217905550614f5b806100b96000396000f3fe608060405234801561001057600080fd5b50600436106101f05760003560e01c80636794a7ec1161010f578063ccf28e86116100a2578063e9f86f1e11610071578063e9f86f1e14610697578063ed991415146106c7578063f215bb08146106f7578063f851a44014610727576101f0565b8063ccf28e86146105d2578063d7984a2914610602578063d8c1eb5414610636578063e7651d1f14610666576101f0565b80639daa52fd116100de5780639daa52fd146105325780639f6828d914610562578063a168177014610596578063cab96b70146105b4576101f0565b80636794a7ec146104955780636af8bf75146104b15780638d44d9d9146104cd57806397a3e66a146104fd576101f0565b806322b9dd901161018757806345504a831161015657806345504a83146103d157806345f88af71461040157806358fa084014610433578063609c6d7f14610465576101f0565b806322b9dd901461033957806324d7806c1461035557806338897f9a146103855780633ab9f6d8146103a1576101f0565b806318d85e53116101c357806318d85e53146102a15780631b3ea351146102bd5780631b8558dd146102ed5780631ef3199214610309576101f0565b80630745aa36146101f5578063080d36341461022557806310c1224c1461025557806316ac952a14610285575b600080fd5b61020f600480360381019061020a91906137f1565b610745565b60405161021c9190614428565b60405180910390f35b61023f600480360381019061023a91906137c8565b610757565b60405161024c919061495d565b60405180910390f35b61026f600480360381019061026a9190613641565b610765565b60405161027c91906143a0565b60405180910390f35b61029f600480360381019061029a919061366a565b610843565b005b6102bb60048036038101906102b6919061381a565b610edd565b005b6102d760048036038101906102d2919061379f565b61103c565b6040516102e491906147df565b60405180910390f35b610307600480360381019061030291906139d7565b611091565b005b610323600480360381019061031e91906137f1565b611158565b60405161033091906143d6565b60405180910390f35b610353600480360381019061034e919061391c565b6111d5565b005b61036f600480360381019061036a9190613641565b611517565b60405161037c91906143a0565b60405180910390f35b61039f600480360381019061039a9190613856565b6115c5565b005b6103bb60048036038101906103b69190613641565b611c4b565b6040516103c891906147df565b60405180910390f35b6103eb60048036038101906103e691906137f1565b611c63565b6040516103f8919061476b565b60405180910390f35b61041b600480360381019061041691906137f1565b61227b565b60405161042a939291906147a8565b60405180910390f35b61044d60048036038101906104489190613a13565b6122de565b60405161045c939291906147a8565b60405180910390f35b61047f600480360381019061047a919061381a565b61230d565b60405161048c91906143a0565b60405180910390f35b6104af60048036038101906104aa9190613724565b6123d4565b005b6104cb60048036038101906104c69190613958565b61280b565b005b6104e760048036038101906104e291906137f1565b6129b4565b6040516104f491906143bb565b60405180910390f35b610517600480360381019061051291906137f1565b6129c6565b604051610529969594939291906147fa565b60405180910390f35b61054c60048036038101906105479190613a3c565b612b28565b604051610559919061478d565b60405180910390f35b61057c600480360381019061057791906137f1565b612b43565b60405161058d959493929190614863565b60405180910390f35b61059e612dd4565b6040516105ab91906147df565b60405180910390f35b6105bc612dda565b6040516105c991906147df565b60405180910390f35b6105ec60048036038101906105e79190613641565b612de0565b6040516105f991906143a0565b60405180910390f35b61061c600480360381019061061791906137f1565b612e00565b60405161062d959493929190614903565b60405180910390f35b610650600480360381019061064b91906137f1565b612ed8565b60405161065d9190614428565b60405180910390f35b610680600480360381019061067b91906137f1565b612f50565b60405161068e929190614524565b60405180910390f35b6106b160048036038101906106ac91906137f1565b613084565b6040516106be91906147df565b60405180910390f35b6106e160048036038101906106dc9190613641565b61309c565b6040516106ee91906147df565b60405180910390f35b610711600480360381019061070c91906137f1565b61312e565b60405161071e91906143bb565b60405180910390f35b61072f6131ba565b60405161073c9190614340565b60405180910390f35b600061075082612ed8565b9050919050565b60008161ffff169050919050565b60006006808111156107a0577f4e487b7100000000000000000000000000000000000000000000000000000000600052602160045260246000fd5b60066000600260008673ffffffffffffffffffffffffffffffffffffffff1673ffffffffffffffffffffffffffffffffffffffff16815260200190815260200160002054815260200190815260200160002060020160149054906101000a900460ff16600681111561083b577f4e487b7100000000000000000000000000000000000000000000000000000000600052602160045260246000fd5b149050919050565b600073ffffffffffffffffffffffffffffffffffffffff168573ffffffffffffffffffffffffffffffffffffffff1614156108b3576040517f08c379a00000000000000000000000000000000000000000000000000000000081526004016108aa906146cb565b60405180910390fd5b6000600260008773ffffffffffffffffffffffffffffffffffffffff1673ffffffffffffffffffffffffffffffffffffffff1681526020019081526020016000205414610935576040517f08c379a000000000000000000000000000000000000000000000000000000000815260040161092c906146ab565b60405180910390fd5b60006109408561103c565b905060016000546109519190614a3e565b7f834128f6694365adc4f55fcf51d1687a1945ca3c3fbebe22a29a3204b0df313e828561097d8561312e565b61098688612ed8565b60405161099694939291906148be565b60405180910390a26000808154809291906109b090614cfd565b91905055506040518060c0016040528060005481526020018881526020018773ffffffffffffffffffffffffffffffffffffffff16815260200160006006811115610a24577f4e487b7100000000000000000000000000000000000000000000000000000000600052602160045260246000fd5b8152602001868152602001856001811115610a68577f4e487b7100000000000000000000000000000000000000000000000000000000600052602160045260246000fd5b8152506006600080548152602001908152602001600020600082015181600001556020820151816001019080519060200190610aa59291906131e0565b5060408201518160020160006101000a81548173ffffffffffffffffffffffffffffffffffffffff021916908373ffffffffffffffffffffffffffffffffffffffff16021790555060608201518160020160146101000a81548160ff02191690836006811115610b3e577f4e487b7100000000000000000000000000000000000000000000000000000000600052602160045260246000fd5b021790555060808201518160030160008201518160000160006101000a81548160ff021916908360ff16021790555060208201518160000160016101000a81548160ff021916908360ff16021790555060408201518160000160026101000a81548161ffff021916908361ffff160217905550505060a08201518160040160006101000a81548160ff02191690836001811115610c04577f4e487b7100000000000000000000000000000000000000000000000000000000600052602160045260246000fd5b021790555090505060405180604001604052806040518060200160405280600081525081526020016040518060200160405280600081525081525060076000805481526020019081526020016000206000820151816000019080519060200190610c6f9291906131e0565b506020820151816001019080519060200190610c8c9291906131e0565b509050506040518060a00160405280828152602001848152602001838152602001610cb68361312e565b6004811115610cee577f4e487b7100000000000000000000000000000000000000000000000000000000600052602160045260246000fd5b8152602001610cfc85612ed8565b6006811115610d34577f4e487b7100000000000000000000000000000000000000000000000000000000600052602160045260246000fd5b815250600860008054815260200190815260200160002060008201518160000155602082015181600101556040820151816002019080519060200190610d7b9291906131e0565b5060608201518160030160006101000a81548160ff02191690836004811115610dcd577f4e487b7100000000000000000000000000000000000000000000000000000000600052602160045260246000fd5b021790555060808201518160030160016101000a81548160ff02191690836006811115610e23577f4e487b7100000000000000000000000000000000000000000000000000000000600052602160045260246000fd5b0217905550905050600054600260008873ffffffffffffffffffffffffffffffffffffffff1673ffffffffffffffffffffffffffffffffffffffff168152602001908152602001600020819055506000547f91b08635671aac60e9f3dda55c450b1170d8c93ab4e68fc5737cc03948f7d45988886000896040015189878a8a610eab8b61312e565b610eb48e612ed8565b42604051610ecc9b9a99989796959493929190614443565b60405180910390a250505050505050565b610ee633611517565b610f25576040517f08c379a0000000000000000000000000000000000000000000000000000000008152600401610f1c9061468b565b60405180910390fd5b6004600083815260200190815260200160002060040160009054906101000a900460ff1615610f89576040517f08c379a0000000000000000000000000000000000000000000000000000000008152600401610f809061472b565b60405180910390fd5b60046000838152602001908152602001600020600301819080600181540180825580915050600190039060005260206000200160009091909190916101000a81548173ffffffffffffffffffffffffffffffffffffffff021916908373ffffffffffffffffffffffffffffffffffffffff160217905550817f12246ba2398106df92bc0281a1eece14e5b8516c5c3dab76205391650e39fddb826040516110309190614340565b60405180910390a25050565b6000806107b26301e13380426110529190614a94565b61105c9190614a3e565b9050826040015161ffff168111611074576000611089565b826040015161ffff16816110889190614b3c565b5b915050919050565b61109a33611517565b6110d9576040517f08c379a00000000000000000000000000000000000000000000000000000000081526004016110d09061468b565b60405180910390fd5b6000821180156110eb57506000548211155b61112a576040517f08c379a0000000000000000000000000000000000000000000000000000000008152600401611121906145ab565b60405180910390fd5b8060036000848152602001908152602001600020600082825461114d9190614a3e565b925050819055505050565b6000808211801561116b57506000548211155b6111aa576040517f08c379a00000000000000000000000000000000000000000000000000000000081526004016111a19061470b565b60405180910390fd5b6006600083815260200190815260200160002060020160149054906101000a900460ff169050919050565b6111de33611517565b61121d576040517f08c379a00000000000000000000000000000000000000000000000000000000081526004016112149061468b565b60405180910390fd5b60008211801561122f57506000548211155b61126e576040517f08c379a00000000000000000000000000000000000000000000000000000000081526004016112659061470b565b60405180910390fd5b6006600083815260200190815260200160002060020160149054906101000a900460ff1660068111156112ca577f4e487b7100000000000000000000000000000000000000000000000000000000600052602160045260246000fd5b816006811115611303577f4e487b7100000000000000000000000000000000000000000000000000000000600052602160045260246000fd5b11611343576040517f08c379a000000000000000000000000000000000000000000000000000000000815260040161133a906145cb565b60405180910390fd5b60006006600084815260200190815260200160002060020160149054906101000a900460ff169050816006600085815260200190815260200160002060020160146101000a81548160ff021916908360068111156113ca577f4e487b7100000000000000000000000000000000000000000000000000000000600052602160045260246000fd5b0217905550600680811115611408577f4e487b7100000000000000000000000000000000000000000000000000000000600052602160045260246000fd5b826006811115611441577f4e487b7100000000000000000000000000000000000000000000000000000000600052602160045260246000fd5b14156114d6576001600560006006600087815260200190815260200160002060020160009054906101000a900473ffffffffffffffffffffffffffffffffffffffff1673ffffffffffffffffffffffffffffffffffffffff1673ffffffffffffffffffffffffffffffffffffffff16815260200190815260200160002060006101000a81548160ff0219169083151502179055505b827f01ae96fe1baf9d2d284e6a11b7ab2a76e1c8b047b807650660b4370d50462f2382844260405161150a939291906143f1565b60405180910390a2505050565b6000600960009054906101000a900473ffffffffffffffffffffffffffffffffffffffff1673ffffffffffffffffffffffffffffffffffffffff168273ffffffffffffffffffffffffffffffffffffffff1614806115be5750600560008373ffffffffffffffffffffffffffffffffffffffff1673ffffffffffffffffffffffffffffffffffffffff16815260200190815260200160002060009054906101000a900460ff165b9050919050565b6115ce33611517565b61160d576040517f08c379a00000000000000000000000000000000000000000000000000000000081526004016116049061468b565b60405180910390fd5b600460008a815260200190815260200160002060040160009054906101000a900460ff1615611671576040517f08c379a00000000000000000000000000000000000000000000000000000000081526004016116689061472b565b60405180910390fd5b6000600460008b815260200190815260200160002060030180549050116116cd576040517f08c379a00000000000000000000000000000000000000000000000000000000081526004016116c49061462b565b60405180910390fd5b6000600260008a73ffffffffffffffffffffffffffffffffffffffff1673ffffffffffffffffffffffffffffffffffffffff168152602001908152602001600020541415611750576040517f08c379a0000000000000000000000000000000000000000000000000000000008152600401611747906146eb565b60405180910390fd5b6000600260008973ffffffffffffffffffffffffffffffffffffffff1673ffffffffffffffffffffffffffffffffffffffff1681526020019081526020016000205414156117d3576040517f08c379a00000000000000000000000000000000000000000000000000000000081526004016117ca9061466b565b60405180910390fd5b6000600260008873ffffffffffffffffffffffffffffffffffffffff1673ffffffffffffffffffffffffffffffffffffffff168152602001908152602001600020541415611856576040517f08c379a000000000000000000000000000000000000000000000000000000000815260040161184d9061458b565b60405180910390fd5b6000600260008773ffffffffffffffffffffffffffffffffffffffff1673ffffffffffffffffffffffffffffffffffffffff1681526020019081526020016000205414156118d9576040517f08c379a00000000000000000000000000000000000000000000000000000000081526004016118d0906145eb565b60405180910390fd5b6001600460008b815260200190815260200160002060040160006101000a81548160ff02191690831515021790555060405180608001604052808973ffffffffffffffffffffffffffffffffffffffff1681526020018873ffffffffffffffffffffffffffffffffffffffff1681526020018773ffffffffffffffffffffffffffffffffffffffff1681526020018673ffffffffffffffffffffffffffffffffffffffff16815250600460008b815260200190815260200160002060050160008201518160000160006101000a81548173ffffffffffffffffffffffffffffffffffffffff021916908373ffffffffffffffffffffffffffffffffffffffff16021790555060208201518160010160006101000a81548173ffffffffffffffffffffffffffffffffffffffff021916908373ffffffffffffffffffffffffffffffffffffffff16021790555060408201518160020160006101000a81548173ffffffffffffffffffffffffffffffffffffffff021916908373ffffffffffffffffffffffffffffffffffffffff16021790555060608201518160030160006101000a81548173ffffffffffffffffffffffffffffffffffffffff021916908373ffffffffffffffffffffffffffffffffffffffff1602179055509050506000841115611b0957611b08600260008a73ffffffffffffffffffffffffffffffffffffffff1673ffffffffffffffffffffffffffffffffffffffff1681526020019081526020016000205485611091565b5b6000831115611b5c57611b5b600260008973ffffffffffffffffffffffffffffffffffffffff1673ffffffffffffffffffffffffffffffffffffffff1681526020019081526020016000205484611091565b5b6000821115611baf57611bae600260008873ffffffffffffffffffffffffffffffffffffffff1673ffffffffffffffffffffffffffffffffffffffff1681526020019081526020016000205483611091565b5b6000811115611c0257611c01600260008773ffffffffffffffffffffffffffffffffffffffff1673ffffffffffffffffffffffffffffffffffffffff1681526020019081526020016000205482611091565b5b887f19974ab114e4d06de9fa6a18e214db804b1d2a9b1acb21496207e2deafbbb9dc89898989604051611c38949392919061435b565b60405180910390a2505050505050505050565b60026020528060005260406000206000915090505481565b611c6b613266565b600082118015611c7d57506000548211155b611cbc576040517f08c379a0000000000000000000000000000000000000000000000000000000008152600401611cb39061470b565b60405180910390fd5b6040518060600160405280600660008581526020019081526020016000206040518060c001604052908160008201548152602001600182018054611cff90614ccb565b80601f0160208091040260200160405190810160405280929190818152602001828054611d2b90614ccb565b8015611d785780601f10611d4d57610100808354040283529160200191611d78565b820191906000526020600020905b815481529060010190602001808311611d5b57829003601f168201915b505050505081526020016002820160009054906101000a900473ffffffffffffffffffffffffffffffffffffffff1673ffffffffffffffffffffffffffffffffffffffff1673ffffffffffffffffffffffffffffffffffffffff1681526020016002820160149054906101000a900460ff166006811115611e22577f4e487b7100000000000000000000000000000000000000000000000000000000600052602160045260246000fd5b6006811115611e5a577f4e487b7100000000000000000000000000000000000000000000000000000000600052602160045260246000fd5b8152602001600382016040518060600160405290816000820160009054906101000a900460ff1660ff1660ff1681526020016000820160019054906101000a900460ff1660ff1660ff1681526020016000820160029054906101000a900461ffff1661ffff1661ffff168152505081526020016004820160009054906101000a900460ff166001811115611f17577f4e487b7100000000000000000000000000000000000000000000000000000000600052602160045260246000fd5b6001811115611f4f577f4e487b7100000000000000000000000000000000000000000000000000000000600052602160045260246000fd5b81525050815260200160076000858152602001908152602001600020604051806040016040529081600082018054611f8690614ccb565b80601f0160208091040260200160405190810160405280929190818152602001828054611fb290614ccb565b8015611fff5780601f10611fd457610100808354040283529160200191611fff565b820191906000526020600020905b815481529060010190602001808311611fe257829003601f168201915b5050505050815260200160018201805461201890614ccb565b80601f016020809104026020016040519081016040528092919081815260200182805461204490614ccb565b80156120915780601f1061206657610100808354040283529160200191612091565b820191906000526020600020905b81548152906001019060200180831161207457829003601f168201915b5050505050815250508152602001600860008581526020019081526020016000206040518060a001604052908160008201548152602001600182015481526020016002820180546120e190614ccb565b80601f016020809104026020016040519081016040528092919081815260200182805461210d90614ccb565b801561215a5780601f1061212f5761010080835404028352916020019161215a565b820191906000526020600020905b81548152906001019060200180831161213d57829003601f168201915b505050505081526020016003820160009054906101000a900460ff1660048111156121ae577f4e487b7100000000000000000000000000000000000000000000000000000000600052602160045260246000fd5b60048111156121e6577f4e487b7100000000000000000000000000000000000000000000000000000000600052602160045260246000fd5b81526020016003820160019054906101000a900460ff166006811115612235577f4e487b7100000000000000000000000000000000000000000000000000000000600052602160045260246000fd5b600681111561226d577f4e487b7100000000000000000000000000000000000000000000000000000000600052602160045260246000fd5b815250508152509050919050565b6000806000806006600086815260200190815260200160002060030190508060000160029054906101000a900461ffff1693508060000160019054906101000a900460ff1692508060000160009054906101000a900460ff169150509193909250565b600080600060108463ffffffff16901c925060ff60088563ffffffff16901c16915060ff841690509193909250565b60006006600084815260200190815260200160002060020160009054906101000a900473ffffffffffffffffffffffffffffffffffffffff1673ffffffffffffffffffffffffffffffffffffffff168273ffffffffffffffffffffffffffffffffffffffff1614806123cc5750600960009054906101000a900473ffffffffffffffffffffffffffffffffffffffff1673ffffffffffffffffffffffffffffffffffffffff168273ffffffffffffffffffffffffffffffffffffffff16145b905092915050565b6123dd33611517565b61241c576040517f08c379a00000000000000000000000000000000000000000000000000000000081526004016124139061468b565b60405180910390fd5b600060405180606001604052808560ff1681526020018460ff1681526020018361ffff16815250905060006040518060800160405280600073ffffffffffffffffffffffffffffffffffffffff168152602001600073ffffffffffffffffffffffffffffffffffffffff168152602001600073ffffffffffffffffffffffffffffffffffffffff168152602001600073ffffffffffffffffffffffffffffffffffffffff168152509050600160008154809291906124d990614cfd565b91905055506040518060c001604052806001548152602001878152602001838152602001600067ffffffffffffffff81111561253e577f4e487b7100000000000000000000000000000000000000000000000000000000600052604160045260246000fd5b60405190808252806020026020018201604052801561256c5781602001602082028036833780820191505090505b508152602001600015158152602001828152506004600060015481526020019081526020016000206000820151816000015560208201518160010190805190602001906125ba9291906131e0565b5060408201518160020160008201518160000160006101000a81548160ff021916908360ff16021790555060208201518160000160016101000a81548160ff021916908360ff16021790555060408201518160000160026101000a81548161ffff021916908361ffff16021790555050506060820151816003019080519060200190612647929190613299565b5060808201518160040160006101000a81548160ff02191690831515021790555060a08201518160050160008201518160000160006101000a81548173ffffffffffffffffffffffffffffffffffffffff021916908373ffffffffffffffffffffffffffffffffffffffff16021790555060208201518160010160006101000a81548173ffffffffffffffffffffffffffffffffffffffff021916908373ffffffffffffffffffffffffffffffffffffffff16021790555060408201518160020160006101000a81548173ffffffffffffffffffffffffffffffffffffffff021916908373ffffffffffffffffffffffffffffffffffffffff16021790555060608201518160030160006101000a81548173ffffffffffffffffffffffffffffffffffffffff021916908373ffffffffffffffffffffffffffffffffffffffff16021790555050509050506001547f527887ed6033dc7f6637d06840290a881f67a7f6b0b297598a5a88195bba4f6d878760ff166064886127c89190614b01565b60ff16612710886127d99190614ac5565b6127e39190614a06565b6127ed9190614a06565b6040516127fb92919061455b565b60405180910390a2505050505050565b60008311801561281d57506000548311155b61285c576040517f08c379a00000000000000000000000000000000000000000000000000000000081526004016128539061464b565b60405180910390fd5b6006600084815260200190815260200160002060020160009054906101000a900473ffffffffffffffffffffffffffffffffffffffff1673ffffffffffffffffffffffffffffffffffffffff163373ffffffffffffffffffffffffffffffffffffffff1614806128d157506128d033611517565b5b612910576040517f08c379a00000000000000000000000000000000000000000000000000000000081526004016129079061474b565b60405180910390fd5b6040518060400160405280838152602001828152506007600085815260200190815260200160002060008201518160000190805190602001906129549291906131e0565b5060208201518160010190805190602001906129719291906131e0565b50905050827f3a2df04b3034672d2c2b1dad7a1a514a04aa7bca1f226958091c379b472dadbf83836040516129a7929190614524565b60405180910390a2505050565b60006129bf8261312e565b9050919050565b60066020528060005260406000206000915090508060000154908060010180546129ef90614ccb565b80601f0160208091040260200160405190810160405280929190818152602001828054612a1b90614ccb565b8015612a685780601f10612a3d57610100808354040283529160200191612a68565b820191906000526020600020905b815481529060010190602001808311612a4b57829003601f168201915b5050505050908060020160009054906101000a900473ffffffffffffffffffffffffffffffffffffffff16908060020160149054906101000a900460ff1690806003016040518060600160405290816000820160009054906101000a900460ff1660ff1660ff1681526020016000820160019054906101000a900460ff1660ff1660ff1681526020016000820160029054906101000a900461ffff1661ffff1661ffff1681525050908060040160009054906101000a900460ff16905086565b60008160ff1660088460ff1661ffff16901b17905092915050565b6004602052806000526040600020600091509050806000015490806001018054612b6c90614ccb565b80601f0160208091040260200160405190810160405280929190818152602001828054612b9890614ccb565b8015612be55780601f10612bba57610100808354040283529160200191612be5565b820191906000526020600020905b815481529060010190602001808311612bc857829003601f168201915b505050505090806002016040518060600160405290816000820160009054906101000a900460ff1660ff1660ff1681526020016000820160019054906101000a900460ff1660ff1660ff1681526020016000820160029054906101000a900461ffff1661ffff1661ffff1681525050908060040160009054906101000a900460ff1690806005016040518060800160405290816000820160009054906101000a900473ffffffffffffffffffffffffffffffffffffffff1673ffffffffffffffffffffffffffffffffffffffff1673ffffffffffffffffffffffffffffffffffffffff1681526020016001820160009054906101000a900473ffffffffffffffffffffffffffffffffffffffff1673ffffffffffffffffffffffffffffffffffffffff1673ffffffffffffffffffffffffffffffffffffffff1681526020016002820160009054906101000a900473ffffffffffffffffffffffffffffffffffffffff1673ffffffffffffffffffffffffffffffffffffffff1673ffffffffffffffffffffffffffffffffffffffff1681526020016003820160009054906101000a900473ffffffffffffffffffffffffffffffffffffffff1673ffffffffffffffffffffffffffffffffffffffff1673ffffffffffffffffffffffffffffffffffffffff1681525050905085565b60015481565b60005481565b60056020528060005260406000206000915054906101000a900460ff1681565b6008602052806000526040600020600091509050806000015490806001015490806002018054612e2f90614ccb565b80601f0160208091040260200160405190810160405280929190818152602001828054612e5b90614ccb565b8015612ea85780601f10612e7d57610100808354040283529160200191612ea8565b820191906000526020600020905b815481529060010190602001808311612e8b57829003601f168201915b5050505050908060030160009054906101000a900460ff16908060030160019054906101000a900460ff16905085565b6000603c821015612eec5760009050612f4b565b6042821015612efe5760019050612f4b565b6049821015612f105760029050612f4b565b6051821015612f225760039050612f4b565b605a821015612f345760049050612f4b565b6064821015612f465760059050612f4b565b600690505b919050565b6007602052806000526040600020600091509050806000018054612f7390614ccb565b80601f0160208091040260200160405190810160405280929190818152602001828054612f9f90614ccb565b8015612fec5780601f10612fc157610100808354040283529160200191612fec565b820191906000526020600020905b815481529060010190602001808311612fcf57829003601f168201915b50505050509080600101805461300190614ccb565b80601f016020809104026020016040519081016040528092919081815260200182805461302d90614ccb565b801561307a5780601f1061304f5761010080835404028352916020019161307a565b820191906000526020600020905b81548152906001019060200180831161305d57829003601f168201915b5050505050905082565b60036020528060005260406000206000915090505481565b600080600260008473ffffffffffffffffffffffffffffffffffffffff1673ffffffffffffffffffffffffffffffffffffffff1681526020019081526020016000205490506000811415613125576040517f08c379a000000000000000000000000000000000000000000000000000000000815260040161311c9061460b565b60405180910390fd5b80915050919050565b6000600d82101580156131425750600e8211155b1561315057600090506131b5565b600f8210158015613162575060118211155b1561317057600190506131b5565b60128210158015613182575060148211155b1561319057600290506131b5565b601582101580156131a25750601e8211155b156131b057600390506131b5565b600490505b919050565b600960009054906101000a900473ffffffffffffffffffffffffffffffffffffffff1681565b8280546131ec90614ccb565b90600052602060002090601f01602090048101928261320e5760008555613255565b82601f1061322757805160ff1916838001178555613255565b82800160010185558215613255579182015b82811115613254578251825591602001919060010190613239565b5b5090506132629190613323565b5090565b6040518060600160405280613279613340565b8152602001613286613402565b815260200161329361341c565b81525090565b828054828255906000526020600020908101928215613312579160200282015b828111156133115782518260006101000a81548173ffffffffffffffffffffffffffffffffffffffff021916908373ffffffffffffffffffffffffffffffffffffffff160217905550916020019190600101906132b9565b5b50905061331f9190613323565b5090565b5b8082111561333c576000816000905550600101613324565b5090565b6040518060c001604052806000815260200160608152602001600073ffffffffffffffffffffffffffffffffffffffff168152602001600060068111156133b0577f4e487b7100000000000000000000000000000000000000000000000000000000600052602160045260246000fd5b81526020016133bd6134bb565b8152602001600060018111156133fc577f4e487b7100000000000000000000000000000000000000000000000000000000600052602160045260246000fd5b81525090565b604051806040016040528060608152602001606081525090565b6040518060a0016040528060008152602001600081526020016060815260200160006004811115613476577f4e487b7100000000000000000000000000000000000000000000000000000000600052602160045260246000fd5b8152602001600060068111156134b5577f4e487b7100000000000000000000000000000000000000000000000000000000600052602160045260246000fd5b81525090565b6040518060600160405280600060ff168152602001600060ff168152602001600061ffff1681525090565b60006134f96134f4846149a9565b614978565b90508281526020810184848401111561351157600080fd5b61351c848285614c89565b509392505050565b60008135905061353381614e92565b92915050565b60008135905061354881614ea9565b92915050565b60008135905061355d81614eb9565b92915050565b600082601f83011261357457600080fd5b81356135848482602086016134e6565b91505092915050565b60006060828403121561359f57600080fd5b6135a96060614978565b905060006135b98482850161362c565b60008301525060206135cd8482850161362c565b60208301525060406135e1848285016135ed565b60408301525092915050565b6000813590506135fc81614ec9565b92915050565b60008135905061361181614ee0565b92915050565b60008135905061362681614ef7565b92915050565b60008135905061363b81614f0e565b92915050565b60006020828403121561365357600080fd5b600061366184828501613524565b91505092915050565b600080600080600080610100878903121561368457600080fd5b600087013567ffffffffffffffff81111561369e57600080fd5b6136aa89828a01613563565b96505060206136bb89828a01613524565b95505060406136cc89828a0161358d565b94505060a06136dd89828a0161354e565b93505060c06136ee89828a01613602565b92505060e087013567ffffffffffffffff81111561370b57600080fd5b61371789828a01613563565b9150509295509295509295565b6000806000806080858703121561373a57600080fd5b600085013567ffffffffffffffff81111561375457600080fd5b61376087828801613563565b94505060206137718782880161362c565b93505060406137828782880161362c565b9250506060613793878288016135ed565b91505092959194509250565b6000606082840312156137b157600080fd5b60006137bf8482850161358d565b91505092915050565b6000602082840312156137da57600080fd5b60006137e8848285016135ed565b91505092915050565b60006020828403121561380357600080fd5b600061381184828501613602565b91505092915050565b6000806040838503121561382d57600080fd5b600061383b85828601613602565b925050602061384c85828601613524565b9150509250929050565b60008060008060008060008060006101208a8c03121561387557600080fd5b60006138838c828d01613602565b99505060206138948c828d01613524565b98505060406138a58c828d01613524565b97505060606138b68c828d01613524565b96505060806138c78c828d01613524565b95505060a06138d88c828d01613602565b94505060c06138e98c828d01613602565b93505060e06138fa8c828d01613602565b92505061010061390c8c828d01613602565b9150509295985092959850929598565b6000806040838503121561392f57600080fd5b600061393d85828601613602565b925050602061394e85828601613539565b9150509250929050565b60008060006060848603121561396d57600080fd5b600061397b86828701613602565b935050602084013567ffffffffffffffff81111561399857600080fd5b6139a486828701613563565b925050604084013567ffffffffffffffff8111156139c157600080fd5b6139cd86828701613563565b9150509250925092565b600080604083850312156139ea57600080fd5b60006139f885828601613602565b9250506020613a0985828601613602565b9150509250929050565b600060208284031215613a2557600080fd5b6000613a3384828501613617565b91505092915050565b60008060408385031215613a4f57600080fd5b6000613a5d8582860161362c565b9250506020613a6e8582860161362c565b9150509250929050565b613a8181614b70565b82525050565b613a9081614b70565b82525050565b613a9f81614b82565b82525050565b613aae81614c2f565b82525050565b613abd81614c2f565b82525050565b613acc81614c41565b82525050565b613adb81614c41565b82525050565b613aea81614c53565b82525050565b613af981614c53565b82525050565b613b0881614c65565b82525050565b613b1781614c65565b82525050565b6000613b28826149d9565b613b3281856149e4565b9350613b42818560208601614c98565b613b4b81614e31565b840191505092915050565b6000613b61826149d9565b613b6b81856149f5565b9350613b7b818560208601614c98565b613b8481614e31565b840191505092915050565b6000613b9c6021836149f5565b91507f546869726420706c6163652077696e6e6572206e6f742072656769737465726560008301527f64000000000000000000000000000000000000000000000000000000000000006020830152604082019050919050565b6000613c026011836149f5565b91507f496e76616c6964204a75646f6b612049440000000000000000000000000000006000830152602082019050919050565b6000613c426018836149f5565b91507f4e6577206c6576656c206d7573742062652068696768657200000000000000006000830152602082019050919050565b6000613c826022836149f5565b91507f466f7572746820706c6163652077696e6e6572206e6f7420726567697374657260008301527f65640000000000000000000000000000000000000000000000000000000000006020830152604082019050919050565b6000613ce86035836149f5565b91507f4572726f723a204a75646f6b61206e6f7420666f756e6420666f72207468652060008301527f676976656e2077616c6c657420616464726573732e00000000000000000000006020830152604082019050919050565b6000613d4e601e836149f5565b91507f4e6f207061727469636970616e747320696e20636f6d7065746974696f6e00006000830152602082019050919050565b6000613d8e6015836149f5565b91507f4a75646f6b6120646f6573206e6f7420657869737400000000000000000000006000830152602082019050919050565b6000613dce6022836149f5565b91507f5365636f6e6420706c6163652077696e6e6572206e6f7420726567697374657260008301527f65640000000000000000000000000000000000000000000000000000000000006020830152604082019050919050565b6000613e346022836149f5565b91507f4f6e6c792061646d696e2063616e20706572666f726d2074686973206163746960008301527f6f6e0000000000000000000000000000000000000000000000000000000000006020830152604082019050919050565b6000613e9a6019836149f5565b91507f4a75646f6b6120616c72656164792072656769737465726564000000000000006000830152602082019050919050565b6000613eda6000836149f5565b9150600082019050919050565b6000613ef46016836149f5565b91507f496e76616c69642077616c6c65742061646472657373000000000000000000006000830152602082019050919050565b6000613f346021836149f5565b91507f466972737420706c6163652077696e6e6572206e6f742072656769737465726560008301527f64000000000000000000000000000000000000000000000000000000000000006020830152604082019050919050565b6000613f9a6016836149f5565b91507f4a75646f6b6120646f6573206e6f742065786973742e000000000000000000006000830152602082019050919050565b6000613fda601d836149f5565b91507f436f6d7065746974696f6e20616c726561647920636f6d706c657465640000006000830152602082019050919050565b600061401a600e836149f5565b91507f4e6f7420617574686f72697a65640000000000000000000000000000000000006000830152602082019050919050565b6080820160008201516140636000850182613a78565b5060208201516140766020850182613a78565b5060408201516140896040850182613a78565b50606082015161409c6060850182613a78565b50505050565b6060820160008201516140b86000850182614322565b5060208201516140cb6020850182614322565b5060408201516140de60408501826142c8565b50505050565b6060820160008201516140fa6000850182614322565b50602082015161410d6020850182614322565b50604082015161412060408501826142c8565b50505050565b600060608301600083015184820360008601526141438282614184565b9150506020830151848203602086015261415d828261420e565b915050604083015184820360408601526141778282614252565b9150508091505092915050565b60006101008301600083015161419d60008601826142f5565b50602083015184820360208601526141b58282613b1d565b91505060408301516141ca6040860182613a78565b5060608301516141dd6060860182613ac3565b5060808301516141f060808601826140a2565b5060a083015161420360e0860182613ae1565b508091505092915050565b6000604083016000830151848203600086015261422b8282613b1d565b915050602083015184820360208601526142458282613b1d565b9150508091505092915050565b600060a08301600083015161426a60008601826142f5565b50602083015161427d60208601826142f5565b50604083015184820360408601526142958282613b1d565b91505060608301516142aa6060860182613aa5565b5060808301516142bd6080860182613aff565b508091505092915050565b6142d181614bda565b82525050565b6142e081614bda565b82525050565b6142ef81614c77565b82525050565b6142fe81614c08565b82525050565b61430d81614c08565b82525050565b61431c81614c12565b82525050565b61432b81614c22565b82525050565b61433a81614c22565b82525050565b60006020820190506143556000830184613a87565b92915050565b60006080820190506143706000830187613a87565b61437d6020830186613a87565b61438a6040830185613a87565b6143976060830184613a87565b95945050505050565b60006020820190506143b56000830184613a96565b92915050565b60006020820190506143d06000830184613ab4565b92915050565b60006020820190506143eb6000830184613ad2565b92915050565b60006060820190506144066000830186613ad2565b6144136020830185613ad2565b6144206040830184614304565b949350505050565b600060208201905061443d6000830184613b0e565b92915050565b60006101a082019050818103600083015261445e818e613b56565b905061446d602083018d613a87565b61447a604083018c613ad2565b614487606083018b6142e6565b614494608083018a613af0565b81810360a08301526144a581613ecd565b905081810360c08301526144b881613ecd565b90506144c760e0830189614304565b6144d5610100830188614304565b8181036101208301526144e88187613b56565b90506144f8610140830186613ab4565b614506610160830185613b0e565b614514610180830184614304565b9c9b505050505050505050505050565b6000604082019050818103600083015261453e8185613b56565b905081810360208301526145528184613b56565b90509392505050565b600060408201905081810360008301526145758185613b56565b905061458460208301846142e6565b9392505050565b600060208201905081810360008301526145a481613b8f565b9050919050565b600060208201905081810360008301526145c481613bf5565b9050919050565b600060208201905081810360008301526145e481613c35565b9050919050565b6000602082019050818103600083015261460481613c75565b9050919050565b6000602082019050818103600083015261462481613cdb565b9050919050565b6000602082019050818103600083015261464481613d41565b9050919050565b6000602082019050818103600083015261466481613d81565b9050919050565b6000602082019050818103600083015261468481613dc1565b9050919050565b600060208201905081810360008301526146a481613e27565b9050919050565b600060208201905081810360008301526146c481613e8d565b9050919050565b600060208201905081810360008301526146e481613ee7565b9050919050565b6000602082019050818103600083015261470481613f27565b9050919050565b6000602082019050818103600083015261472481613f8d565b9050919050565b6000602082019050818103600083015261474481613fcd565b9050919050565b600060208201905081810360008301526147648161400d565b9050919050565b600060208201905081810360008301526147858184614126565b905092915050565b60006020820190506147a260008301846142d7565b92915050565b60006060820190506147bd60008301866142d7565b6147ca6020830185614331565b6147d76040830184614331565b949350505050565b60006020820190506147f46000830184614304565b92915050565b6000610100820190506148106000830189614304565b81810360208301526148228188613b56565b90506148316040830187613a87565b61483e6060830186613ad2565b61484b60808301856140e4565b61485860e0830184613af0565b979650505050505050565b6000610140820190506148796000830188614304565b818103602083015261488b8187613b56565b905061489a60408301866140e4565b6148a760a0830185613a96565b6148b460c083018461404d565b9695505050505050565b60006080820190506148d36000830187614304565b6148e06020830186614304565b6148ed6040830185613ab4565b6148fa6060830184613b0e565b95945050505050565b600060a0820190506149186000830188614304565b6149256020830187614304565b81810360408301526149378186613b56565b90506149466060830185613ab4565b6149536080830184613b0e565b9695505050505050565b60006020820190506149726000830184614313565b92915050565b6000604051905081810181811067ffffffffffffffff8211171561499f5761499e614e02565b5b8060405250919050565b600067ffffffffffffffff8211156149c4576149c3614e02565b5b601f19601f8301169050602081019050919050565b600081519050919050565b600082825260208201905092915050565b600082825260208201905092915050565b6000614a1182614bda565b9150614a1c83614bda565b92508261ffff03821115614a3357614a32614d46565b5b828201905092915050565b6000614a4982614c08565b9150614a5483614c08565b9250827fffffffffffffffffffffffffffffffffffffffffffffffffffffffffffffffff03821115614a8957614a88614d46565b5b828201905092915050565b6000614a9f82614c08565b9150614aaa83614c08565b925082614aba57614ab9614d75565b5b828204905092915050565b6000614ad082614bda565b9150614adb83614bda565b92508161ffff0483118215151615614af657614af5614d46565b5b828202905092915050565b6000614b0c82614c22565b9150614b1783614c22565b92508160ff0483118215151615614b3157614b30614d46565b5b828202905092915050565b6000614b4782614c08565b9150614b5283614c08565b925082821015614b6557614b64614d46565b5b828203905092915050565b6000614b7b82614be8565b9050919050565b60008115159050919050565b6000819050614b9c82614e42565b919050565b6000819050614baf82614e56565b919050565b6000819050614bc282614e6a565b919050565b6000819050614bd582614e7e565b919050565b600061ffff82169050919050565b600073ffffffffffffffffffffffffffffffffffffffff82169050919050565b6000819050919050565b600063ffffffff82169050919050565b600060ff82169050919050565b6000614c3a82614b8e565b9050919050565b6000614c4c82614ba1565b9050919050565b6000614c5e82614bb4565b9050919050565b6000614c7082614bc7565b9050919050565b6000614c8282614bda565b9050919050565b82818337600083830152505050565b60005b83811015614cb6578082015181840152602081019050614c9b565b83811115614cc5576000848401525b50505050565b60006002820490506001821680614ce357607f821691505b60208210811415614cf757614cf6614dd3565b5b50919050565b6000614d0882614c08565b91507fffffffffffffffffffffffffffffffffffffffffffffffffffffffffffffffff821415614d3b57614d3a614d46565b5b600182019050919050565b7f4e487b7100000000000000000000000000000000000000000000000000000000600052601160045260246000fd5b7f4e487b7100000000000000000000000000000000000000000000000000000000600052601260045260246000fd5b7f4e487b7100000000000000000000000000000000000000000000000000000000600052602160045260246000fd5b7f4e487b7100000000000000000000000000000000000000000000000000000000600052602260045260246000fd5b7f4e487b7100000000000000000000000000000000000000000000000000000000600052604160045260246000fd5b6000601f19601f8301169050919050565b60058110614e5357614e52614da4565b5b50565b60078110614e6757614e66614da4565b5b50565b60028110614e7b57614e7a614da4565b5b50565b60078110614e8f57614e8e614da4565b5b50565b614e9b81614b70565b8114614ea657600080fd5b50565b60078110614eb657600080fd5b50565b60028110614ec657600080fd5b50565b614ed281614bda565b8114614edd57600080fd5b50565b614ee981614c08565b8114614ef457600080fd5b50565b614f0081614c12565b8114614f0b57600080fd5b50565b614f1781614c22565b8114614f2257600080fd5b5056fea264697066735822122002e41ae58ad03e25333e5ef71272b64d5864744d2a01a414a53e0fcb436f126964736f6c63430008000033",
  "immutableReferences": {},
  "source": "// SPDX-License-Identifier: MIT\r\npragma solidity ^0.8.0;\r\n\r\ncontract JudoSystem {\r\n    enum BeltLevel { White, Yellow, Orange, Green, Blue, Brown, Black }\r\n    enum Gender { Male, Female }\r\n    enum AgeCategory { Juveniles, Cadets, Juniors, Seniors, Veterans }\r\n    enum WeightCategory { Under60, Under66, Under73, Under81, Under90, Under100, Over100 }\r\n\r\n    struct JudokaBasic {\r\n        uint256 id;\r\n        string name;\r\n        address walletAddress;\r\n        BeltLevel beltLevel;\r\n        Date birthDate;\r\n        Gender gender;\r\n    }\r\n\r\n    struct Date {\r\n        uint8 day;\r\n        uint8 month;\r\n        uint16 year;\r\n    }\r\n\r\n    struct JudokaContact {\r\n        string email;\r\n        string phoneNumber;\r\n    }\r\n\r\n    struct JudokaPhysical {\r\n        uint256 age;\r\n        uint256 weight;\r\n        string club;\r\n        AgeCategory ageCategory;\r\n        WeightCategory weightCategory;\r\n    }\r\n\r\n    struct FullJudokaInfo {\r\n        JudokaBasic basic;\r\n        JudokaContact contact;\r\n        JudokaPhysical physical;\r\n    }\r\n\r\n    struct CompetitionResult {\r\n        address firstPlace;\r\n        address secondPlace;\r\n        address thirdPlace;\r\n        address fourthPlace;\r\n    }\r\n\r\n    struct Competition {\r\n        uint256 id;\r\n        string name;\r\n        Date date;\r\n        address[] participants;\r\n        bool completed;\r\n        CompetitionResult results;\r\n    }\r\n\r\n    struct BeltLevelChange {\r\n        BeltLevel oldBeltLevel;\r\n        BeltLevel newBeltLevel;\r\n        uint256 timestamp;\r\n    }\r\n\r\n    uint256 public judokaCount;\r\n    uint256 public competitionCount;\r\n    mapping(address => uint256) public judokaIds;\r\n    mapping(uint256 => uint256) public judokaPoints;\r\n    mapping(uint256 => Competition) public competitions;\r\n    mapping(address => bool) public blackBeltAdmins;\r\n    mapping(uint256 => JudokaBasic) public judokasBasic;\r\n    mapping(uint256 => JudokaContact) public judokasContact;\r\n    mapping(uint256 => JudokaPhysical) public judokasPhysical;\r\n\r\n    address public admin;\r\n\r\n    event JudokaRegistered(uint256 indexed id, string name, address walletAddress, BeltLevel beltLevel, uint256 dateOfBirth, Gender gender, string email, string phoneNumber, uint256 age, uint256 weight, string club, AgeCategory ageCategory, WeightCategory weightCategory, uint256 timestamp);\r\n    event BeltLevelUpdated(uint256 indexed id, BeltLevel oldBeltLevel, BeltLevel newBeltLevel, uint256 timestamp);\r\n    event CompetitionCreated(uint256 indexed id, string name, uint256 date);\r\n    event ParticipantAdded(uint256 indexed competitionId, address participant);\r\n    event CompetitionResultRecorded(uint256 indexed competitionId, address firstPlace, address secondPlace, address thirdPlace, address fourthPlace);\r\n    event JudokaContactUpdated(uint256 indexed id, string email, string phoneNumber);\r\n    event DebugInfo(uint256 indexed id, uint256 age, uint256 weight, AgeCategory ageCategory, WeightCategory weightCategory);\r\n\r\n    \r\n    constructor() {\r\n        admin = msg.sender;\r\n        blackBeltAdmins[msg.sender] = true;\r\n    }\r\n\r\n    modifier onlyAdmin() {\r\n        require(isAdmin(msg.sender), \"Only admin can perform this action\");\r\n        _;\r\n    }\r\n\r\n    function isAdmin(address _address) public view returns (bool) {\r\n    return _address == admin || blackBeltAdmins[_address];\r\n    }\r\n\r\n    // Utility functions for date packing and unpacking\r\n    function packDateForJudoka(uint16 _birthYear) public pure returns (uint32) {\r\n        // Since only year is relevant for judokas, we simplify this function\r\n        return uint32(_birthYear);\r\n    }\r\n\r\n    function packDateForCompetition(uint8 _month, uint8 _day) public pure returns (uint16) {\r\n        // Correct packing for competition dates\r\n        return (uint16(_month) << 8) | uint16(_day);\r\n    }\r\n\r\n    function getAgeCategory(uint256 _age) public pure returns (AgeCategory) {\r\n        if (_age >= 13 && _age <= 14) {\r\n            return AgeCategory.Juveniles;\r\n        } else if (_age >= 15 && _age <= 17) {\r\n            return AgeCategory.Cadets;\r\n        } else if (_age >= 18 && _age <= 20) {\r\n            return AgeCategory.Juniors;\r\n        } else if (_age >= 21 && _age <= 30) {\r\n            return AgeCategory.Seniors;\r\n        } else {\r\n            return AgeCategory.Veterans;\r\n        }\r\n    }\r\n\r\n    function getWeightCategory(uint256 _weight) public pure returns (WeightCategory) {\r\n        if (_weight < 60) {\r\n            return WeightCategory.Under60;\r\n        } else if (_weight < 66) {\r\n            return WeightCategory.Under66;\r\n        } else if (_weight < 73) {\r\n            return WeightCategory.Under73;\r\n        } else if (_weight < 81) {\r\n            return WeightCategory.Under81;\r\n        } else if (_weight < 90) {\r\n            return WeightCategory.Under90;\r\n        } else if (_weight < 100) {\r\n            return WeightCategory.Under100;\r\n        } else {\r\n            return WeightCategory.Over100;\r\n        }\r\n    }\r\n\r\n    // Example getter functions in your Solidity contract\r\n\r\n    function getAgeCategoryByAge(uint256 _age) public view returns (AgeCategory) {\r\n        return getAgeCategory(_age);\r\n    }\r\n\r\n    function getWeightCategoryByWeight(uint256 _weight) public view returns (WeightCategory) {\r\n        return getWeightCategory(_weight);\r\n    }\r\n\r\n\r\n    function calculateAge(Date memory _birthDate) public view returns (uint256) {\r\n    uint256 currentYear = (block.timestamp / 365 days) + 1970; // Convert from Unix epoch\r\n    return currentYear > _birthDate.year ? currentYear - _birthDate.year : 0;\r\n    }\r\n\r\n    // Function to unpack date from uint32 format\r\n    function unpackDate(uint32 _packedDate) public pure returns (uint16 year, uint8 month, uint8 day) {\r\n        year = uint16(_packedDate >> 16);\r\n        month = uint8(_packedDate >> 8 & 0xFF);\r\n        day = uint8(_packedDate & 0xFF);\r\n    }\r\n\r\n\r\n// Correct usage in registerJudoka (and similar adjustment in other relevant functions)\r\n    function registerJudoka(\r\n        string memory _name, \r\n        address _walletAddress, \r\n        Date memory _birthDate,\r\n        Gender _gender,\r\n        uint256 _weight,\r\n        string memory _club\r\n    ) public {\r\n        require(_walletAddress != address(0), \"Invalid wallet address\");\r\n        require(judokaIds[_walletAddress] == 0, \"Judoka already registered\");\r\n\r\n        uint256 age = calculateAge(_birthDate);\r\n\r\n        emit DebugInfo(judokaCount + 1, age, _weight, getAgeCategory(age), getWeightCategory(_weight));\r\n\r\n\r\n        judokaCount++;\r\n        judokasBasic[judokaCount] = JudokaBasic({\r\n            id: judokaCount,\r\n            name: _name,\r\n            walletAddress: _walletAddress,\r\n            beltLevel: BeltLevel.White,\r\n            birthDate: _birthDate,\r\n            gender: _gender\r\n        });\r\n\r\n        judokasContact[judokaCount] = JudokaContact({\r\n            email: '',\r\n            phoneNumber: ''\r\n        });\r\n\r\n        judokasPhysical[judokaCount] = JudokaPhysical({\r\n            age: age,\r\n            weight: _weight,\r\n            club: _club,\r\n            ageCategory: getAgeCategory(age),\r\n            weightCategory: getWeightCategory(_weight)\r\n        });\r\n\r\n        judokaIds[_walletAddress] = judokaCount;\r\n\r\n        emit JudokaRegistered(\r\n            judokaCount, _name, _walletAddress, BeltLevel.White, _birthDate.year, _gender, '', '', age, _weight, _club, getAgeCategory(age), getWeightCategory(_weight), block.timestamp\r\n        );\r\n    }\r\n\r\n\r\nfunction getJudokaDOB(uint256 _id) public view returns (uint16 year, uint8 month, uint8 day) {\r\n    Date storage birthDate = judokasBasic[_id].birthDate;\r\n    year = birthDate.year;\r\n    month = birthDate.month;\r\n    day = birthDate.day;\r\n}\r\n\r\n\r\nfunction updateJudokaContactDetails(\r\n    uint256 _id,\r\n    string memory _email,\r\n    string memory _phoneNumber\r\n) public {\r\n    require(_id > 0 && _id <= judokaCount, \"Judoka does not exist\");\r\n    require(msg.sender == judokasBasic[_id].walletAddress || isAdmin(msg.sender), \"Not authorized\");\r\n\r\n    judokasContact[_id] = JudokaContact({\r\n        email: _email,\r\n        phoneNumber: _phoneNumber\r\n    });\r\n\r\n    emit JudokaContactUpdated(_id, _email, _phoneNumber);\r\n    }\r\n\r\n    function getJudokaInfo(uint256 _id) public view returns (FullJudokaInfo memory) {\r\n        require(_id > 0 && _id <= judokaCount, \"Judoka does not exist.\");\r\n        return FullJudokaInfo({\r\n            basic: judokasBasic[_id],\r\n            contact: judokasContact[_id],\r\n            physical: judokasPhysical[_id]\r\n        });\r\n    }\r\n\r\n    function getBeltLevel(uint256 _id) public view returns (BeltLevel) {\r\n        require(_id > 0 && _id <= judokaCount, \"Judoka does not exist.\");\r\n        return judokasBasic[_id].beltLevel;\r\n    }\r\n\r\n    function promoteJudoka(uint256 _id, BeltLevel _newBeltLevel) public onlyAdmin {\r\n        require(_id > 0 && _id <= judokaCount, \"Judoka does not exist.\");\r\n        require(_newBeltLevel > judokasBasic[_id].beltLevel, \"New level must be higher\");\r\n\r\n        BeltLevel oldBeltLevel = judokasBasic[_id].beltLevel;\r\n        judokasBasic[_id].beltLevel = _newBeltLevel;\r\n\r\n        if (_newBeltLevel == BeltLevel.Black) {\r\n            blackBeltAdmins[judokasBasic[_id].walletAddress] = true;\r\n        }\r\n\r\n        emit BeltLevelUpdated(_id, oldBeltLevel, _newBeltLevel, block.timestamp);\r\n    }\r\n\r\n    function isBlackBelt(address _address) public view returns (bool) {\r\n        return judokasBasic[judokaIds[_address]].beltLevel == BeltLevel.Black;\r\n    }\r\n\r\n    function isAuthorized(uint256 _id, address _sender) public view returns (bool) {\r\n        return _sender == judokasBasic[_id].walletAddress || _sender == admin;\r\n    }\r\n\r\n    function updateJudokaPoints(uint256 _id, uint256 _points) public onlyAdmin {\r\n        require(_id > 0 && _id <= judokaCount, \"Invalid Judoka ID\");\r\n        judokaPoints[_id] += _points;\r\n    }\r\n\r\n    function getJudokaIdByWallet(address _walletAddress) public view returns (uint256) {\r\n    uint256 judokaId = judokaIds[_walletAddress];\r\n    require(judokaId != 0, \"Error: Judoka not found for the given wallet address.\");\r\n    return judokaId;\r\n    }\r\n\r\n// Function to create a competition correctly handling the packed date\r\nfunction createCompetition(\r\n    string memory _name,\r\n    uint8 _day,\r\n    uint8 _month,\r\n    uint16 _year // Assuming you want to store the full date\r\n) public onlyAdmin {\r\n    // Create the date structure for the competition\r\n        Date memory competitionDate = Date({\r\n        day: _day,\r\n        month: _month,\r\n        year: _year\r\n    });\r\n\r\n    // Default results structure\r\n    CompetitionResult memory defaultResults = CompetitionResult({\r\n        firstPlace: address(0),\r\n        secondPlace: address(0),\r\n        thirdPlace: address(0),\r\n        fourthPlace: address(0)\r\n    });\r\n\r\n    // Increment the competition counter and set up the new competition\r\n    competitionCount++;\r\n    competitions[competitionCount] = Competition({\r\n        id: competitionCount,\r\n        name: _name,\r\n        date: competitionDate,\r\n        participants: new address[](0) ,\r\n        completed: false,\r\n        results: defaultResults\r\n    });\r\n\r\n    // Emit the competition creation event\r\n    emit CompetitionCreated(competitionCount, _name, _year * 10000 + _month * 100 + _day); // Example packed date format for the event\r\n    }\r\n\r\n\r\n    function addParticipant(uint256 _competitionId, address _participant) public onlyAdmin {\r\n        require(!competitions[_competitionId].completed, \"Competition already completed\");\r\n        competitions[_competitionId].participants.push(_participant);\r\n        emit ParticipantAdded(_competitionId, _participant);\r\n    }\r\n\r\n    function recordCompetitionResult(\r\n        uint256 _competitionId, \r\n        address _firstPlace, \r\n        address _secondPlace, \r\n        address _thirdPlace, \r\n        address _fourthPlace,\r\n        uint256 _firstPlacePoints,\r\n        uint256 _secondPlacePoints,\r\n        uint256 _thirdPlacePoints,\r\n        uint256 _fourthPlacePoints\r\n    ) public onlyAdmin {\r\n        require(!competitions[_competitionId].completed, \"Competition already completed\");\r\n        require(competitions[_competitionId].participants.length > 0, \"No participants in competition\");\r\n\r\n        require(judokaIds[_firstPlace] != 0, \"First place winner not registered\");\r\n        require(judokaIds[_secondPlace] != 0, \"Second place winner not registered\");\r\n        require(judokaIds[_thirdPlace] != 0, \"Third place winner not registered\");\r\n        require(judokaIds[_fourthPlace] != 0, \"Fourth place winner not registered\");\r\n\r\n        competitions[_competitionId].completed = true;\r\n        competitions[_competitionId].results = CompetitionResult({\r\n            firstPlace: _firstPlace,\r\n            secondPlace: _secondPlace,\r\n            thirdPlace: _thirdPlace,\r\n            fourthPlace: _fourthPlace\r\n        });\r\n\r\n        if (_firstPlacePoints > 0) {\r\n            updateJudokaPoints(judokaIds[_firstPlace], _firstPlacePoints);\r\n        }\r\n        if (_secondPlacePoints > 0) {\r\n            updateJudokaPoints(judokaIds[_secondPlace], _secondPlacePoints);\r\n        }\r\n        if (_thirdPlacePoints > 0) {\r\n            updateJudokaPoints(judokaIds[_thirdPlace], _thirdPlacePoints);\r\n        }\r\n        if (_fourthPlacePoints > 0) {\r\n            updateJudokaPoints(judokaIds[_fourthPlace], _fourthPlacePoints);\r\n        }\r\n\r\n        emit CompetitionResultRecorded(_competitionId, _firstPlace, _secondPlace, _thirdPlace, _fourthPlace);\r\n    }\r\n}\r\n",
  "sourcePath": "C:\\Users\\marti\\Documents\\projects\\blockchain-judo\\contracts\\JudoSystem.sol",
  "compiler": {
    "name": "solc",
    "version": "0.8.0+commit.c7dfd78e.Emscripten.clang"
  },
  "schemaVersion": "3.4.16",
  "updatedAt": "2024-05-10T09:31:27.202Z",
  "networkType": "ethereum",
  "devdoc": {
    "kind": "dev",
    "methods": {},
    "version": 1
  },
  "userdoc": {
    "kind": "user",
    "methods": {},
    "version": 1
  }
}